:020000040800F2
:10000000000002203D030008310600083506000804
:10001000390600083D0600084106000800000000FF
:10002000000000000000000000000000B1290008EE
:100030004506000800000000F9290008412B0008CF
:100040008D0300088D0300088D0300088D03000850
:100050008D0300088D0300088D0300088D03000840
:100060008D0300088D0300088D0300088D03000830
:100070008D0300088D0300088D0300088D03000820
:100080008D0300088D0300088D0300088D03000810
:100090008D0300088D0300088D0300088D03000800
:1000A0008D0300088D0300088D0300088D030008F0
:1000B0008D0300088D0300088D0300088D030008E0
:1000C0008D0300088D0300088D0300088D030008D0
:1000D0008D0300088D0300088D0300088D030008C0
:1000E0008D0300088D0300088D0300088D030008B0
:1000F0008D0300088D0300088D0300088D030008A0
:100100008D0300088D0300088D0300088D0300088F
:100110008D0300088D030008F50600088D03000814
:100120008D0300088D0300088D0300088D0300086F
:100130008D03000800000000000000008D0300088F
:100140008D0300088D0300088D0300088D0300084F
:100150008D0300088D0300088D0300088D0300083F
:100160008D0300088D0300088D0300088D0300082F
:100170008D0300088D0300088D03000800000000B7
:10018000000000008D0300080000000000000000D7
:100190008D03000800000000000000008D0300082F
:1001A0000000000000000000000000008D030008B7
:1001B0008D0300088D0300088D0300088D030008DF
:0401C0008D030008A3
:1001D00053B94AB9002908BF00281CBF4FF0FF31AE
:1001E0004FF0FF3000F00CB8ADF1080C6DE904CE13
:1001F00002F0F4FEDDF804E0DDE9022304B070470C
:10020000704700BF00000000000000000000000078
:1002100001F0FF01102A2BDB10F0070F08D010F8B7
:10022000013B013A8B422DD010F0070F42B3F6D1BB
:10023000F0B441EA012141EA014122F007047FF0D4
:1002400000070023F0E80256083C85EA010586EA2B
:10025000010685FA47F5A3FA87F586FA47F6A5FA67
:1002600087F68EB9EED1F0BC01F0FF0102F0070273
:1002700032B110F8013B013A83EA010313B1F8D11E
:100280000020704701387047002D06BF35460338FF
:10029000073815F0010F07D1013015F4807F02BF38
:1002A000013015F4C03F0130F0BC0138704700BF89
:1002B0000348044B834202D0034B03B118477047F5
:1002C0006C0000206C000020000000000548064B78
:1002D0001B1AD90F01EBA301491002D0034B03B144
:1002E000184770476C0000206C00002000000000E0
:1002F00010B5064C237843B9FFF7DAFF044B13B16E
:100300000448AFF300800123237010BD700000206B
:10031000000000000C41000808B5054B1BB1054961
:100320000548AFF30080BDE80840FFF7CFBF00BF2E
:1003300000000000740000200C410008DFF834D0F9
:100340000D480E490E4A002302E0D458C45004332D
:10035000C4188C42F9D30B4A0B4C002301E0136004
:100360000432A242FBD300F0CBF902F09BFF00F075
:100370005FF8704700000220000000206C000020A1
:10038000BC4200087000002050400020FEE7000042
:1003900008B50648064C02F0A9FF2046202100F0CF
:1003A000FDFE642000F040FAF7E700BF244100089A
:1003B000000002402DE9F843114FDFF84C90DFF8C0
:1003C0004C8000252021384600F0E8FE690815F031
:1003D000010F01F101040CD115F0030F14BF4E46BB
:1003E000464600F01BFA324603462146054802F015
:1003F0007DFF4FF4FA70013501F0E4FEE2E700BF43
:100400000000024054410008504100084C410008DF
:1004100008B5064C00F002FA0146204602F066FFDD
:100420004FF47A7001F0CEFEF4E700BF844100087B
:1004300070B598B000F0CCF9494C4A4B00220392B9
:10044000216C41F080512164216C01F080510391B5
:1004500003990492196841F4404119601B68119294
:1004600003F4404304934FF4B47210230126CDE902
:100470001232CDE90D63022207230225CDE91423B0
:100480000AA8062304990A951095169300F014FB08
:10049000002863D100F092FF00B1FEE70F23CDE901
:1004A000065005934FF4A0524FF48053052105A840
:1004B000CDE9082300F0CAF9034600284ED12A48A6
:1004C0002A494FF41652C0E900120C22C0E9023347
:1004D000C0E90432C0E9063300F0D0FE054600282A
:1004E0003CD10A90236B224943F001032363236B21
:1004F0004E6003F00103C1E902000A931D480A9B04
:1005000020240C6000F038FD2A462146194800F0EE
:1005100041FE194802F0EAFECDE900651749184886
:100520002B464FF4807201F053FD012812D10023B5
:100530000122CDE90023134913484FF4807201F0E2
:1005400047FD012802D101F071FEFEE70F4802F0DD
:10055000CDFEF8E70E4802F0C9FEE8E7FFF718FF06
:100560000038024000700040A0000020004400401D
:100570008C00002000000240A8410008D84100087B
:10058000B5030008004200081104000808420008F2
:10059000E041000800B583B04FF6FF7301900122DF
:1005A00001A9034800F09CFE019803B05DF804FB2C
:1005B000A000002030B58BB01B4B1C4C00220192D8
:1005C000196B41F001011963196B01F001010191EF
:1005D00001990292196B41F001011963196B01F045
:1005E00001010291029903921A6C42F400321A64DA
:1005F0001B6C0420022103F40033CDE904010393B2
:100600000122072504A920460223CDE906230895E7
:10061000039B00F0B1FC082304A92046049308952D
:1006200000F0AAFC0BB030BD0038024000000240D0
:10063000704700BFFEE700BFFEE700BFFEE700BF58
:10064000FEE700BF704700BF70B588B0234B0022A3
:1006500002921A6C42F010021A641B6C03F0100331
:100660000293054601A903A8029B00F0ADF9069B81
:10067000D3B900F089F90346194A1A4C1A49A2FB6A
:1006800003239B0C013B0022C4E90013204640F2E7
:10069000E7332261A260A261E36001F015F806462B
:1006A00030B1304608B070BD00F06EF94300E3E7AA
:1006B000204600F0C1FE06460028F2D1362000F0A8
:1006C0004DFC0F2D01D90126EBE732462946362095
:1006D00000F008FC054B1D60E3E700BF0038024056
:1006E00083DE1B43E80000200010004008000020CB
:1006F00000F088B8014800F0E1BE00BFE80000202B
:10070000034AD2F8883043F47003C2F88830704747
:1007100000ED00E070B5161E07DD0C468D19AFF335
:10072000008004F8010BA542F9D1304670BD00BF2E
:1007300070B5161E07DD0C468D1914F8010BFFF776
:1007400029FFA542F9D1304670BD00BF4FF0FF3000
:10075000704700BF4FF400534B600020704700BF4C
:1007600001207047002070470C490D4A0B6810B5F6
:100770000C4C121B2BB11844904207D80860184645
:1007800010BD094B0B6018449042F7D902F084FD6C
:100790000C2303604FF0FF33184610BD30010020DA
:1007A00000000220000400005040002008B5064868
:1007B00002F09CFD4FF0500383F31188BFF36F8F5D
:1007C000BFF34F8FFEE700BF28420008704700BF0D
:1007D00008B50B4B1A6842F400721A601A6842F4AA
:1007E00080621A601A6842F480721A60032000F076
:1007F00067FB0F20FFF728FFFFF7E8FF002008BD89
:10080000003C0240034A044B11681B780B44136000
:10081000704700BF3401002004000020014B18681D
:10082000704700BF3401002038B50446FFF7F6FFDB
:10083000631C054602D0044B1B781C44FFF7EEFFF7
:10084000401BA042FAD338BD04000020002800F06D
:100850008780484A136803F00F038B422DE9F0416B
:100860000D46044609D2CBB21370136803F00F0390
:100870008B4202D00120BDE8F0812368980714D58F
:10088000590704D53C498A6842F4E0528A601A0745
:1008900004D539498A6842F460428A603649A068C2
:1008A0008A6822F0F00202438A60DF0721D562687D
:1008B000012A57D0931E012B2F4B1B684DD9990746
:1008C000D8D52D4EB36823F003031343B360FFF76D
:1008D000A5FF41F28838074604E0FFF79FFFC01BE1
:1008E000404544D8B368626803F00C03B3EB820F51
:1008F000F3D1204A136803F00F03AB4206D9EBB2E1
:100900001370136803F00F03AB42B3D123685A0787
:1009100006D51949E0688A6822F4E05202438A60E9
:100920001B0707D5144A2169936823F4604343EAFF
:10093000C103936000F06AF80F4A104C92681049A6
:10094000C2F303120346A25C0E48D34000680B605A
:10095000FFF77AFE0020BDE8F0819801B1D489E765
:1009600001207047044B1B689E03AAD482E7032032
:1009700081E700BF003C02400038024064420008AA
:100980000000002008000020044B05499B68054A30
:100990000868C3F38223D35CD84070470038024014
:1009A000000000205C420008044B05499B68054A92
:1009B0000868C3F34233D35CD84070470038024024
:1009C000000000205C4200080E4B0F2210B40260B1
:1009D0009A680D4C02F0030242609A6802F0F0023D
:1009E00082609A6802F4E052C2609B68DB0803F4FC
:1009F000E053036123685DF8044B03F00F030B60C1
:100A0000704700BF00380240003C0240274908B54B
:100A10008B6803F00C03082B1DD00C2B05D0244A47
:100A20002448042B18BF104608BD4A684B68496823
:100A300013F4800302F03F022ED11D48C1F3881148
:100A4000A1FB0001FFF7C4FB184B5B68C3F3027303
:100A5000B0FBF3F008BD4A684B68496813F48003A3
:100A600002F03F020FD11248C1F38811A1FB00012F
:100A7000FFF7AEFB0D4B5B68C3F3014301335B0033
:100A8000B0FBF3F008BD0B48C1F388110023A1FBB4
:100A90000001FFF79DFBEDE70648C1F38811002335
:100AA000A1FB0001FFF794FBCEE700BF0038024036
:100AB0000024F40000127A00002800F0FB812DE9E8
:100AC000F0410368DE0782B0044636D5A1498A6842
:100AD00002F00C02042A00F0DE808A6802F00C02A8
:100AE000082A00F0D4809B498A6802F00C020C2A84
:100AF00000F004816368B3F5803F00F01881B3F51E
:100B0000A02F00F09281934D2A6822F480322A604F
:100B10002A6822F480222A60002B40F00D81FFF722
:100B20007DFE064605E0FFF779FE801B642800F293
:100B3000FA802B689F03F6D423689D072FD5854A3A
:100B4000916811F00C0F00F09980916801F00C0190
:100B5000082900F08F807F498A6802F00C020C2A75
:100B600000F05E81E368002B00F012817A4B794E31
:100B700001221A60FFF752FE054605E0FFF74EFE20
:100B8000401B022800F2CF8033689F07F6D53368F8
:100B9000226923F0F80343EAC203336023681A078B
:100BA00052D45D0730D56B4A136C13F0805300F0BC
:100BB00099800025694E3368D80540F1A480A36868
:100BC000012B00F0CD80052B00F03981614E326F92
:100BD00022F001023267326F22F004023267002BEA
:100BE00040F0C380FFF71AFE41F28838074605E05F
:100BF000FFF714FEC01B404500F29580336F9B0742
:100C0000F6D4002D40F00681A369CBB1514DAA68FE
:100C100002F00C02082A00F0CC80022B4E4B4FF061
:100C200000021A6600F01581FFF7F8FD044604E0A3
:100C3000FFF7F4FD001B022875D82B689B01F7D441
:100C4000002002B0BDE8F0816369002B2DD0424B3B
:100C5000404E0122C3F8802EFFF7E0FD054604E078
:100C6000FFF7DCFD401B02285DD8736F9B07F7D5AB
:100C7000236896E7526850023FF56DAF354A126817
:100C8000920723D5E268012A20D00120D9E74A68DB
:100C900055027FF528AF2F4A126892037FF54DAFBA
:100CA0006268002A7FF449AFEFE72B4A294EC2F869
:100CB000803EFFF7B3FD054604E0FFF7AFFD401BA4
:100CC000022830D8736F9F07F7D4D1E721492069F4
:100CD0000A6822F0F80242EAC0020A601A077FF5A9
:100CE00060AFB1E70193136C43F080531364136C4E
:100CF00003F080530193019B01255BE74A68510291
:100D00007FF5F8AEC7E7336843F480733360FFF7CD
:100D100085FD07463368D9053FF551AFFFF77EFDE6
:100D2000C01B0228F6D9032002B0BDE8F081094AB1
:100D3000136843F480331360FFF770FD054E0546DA
:100D400004E0FFF76BFD401B6428ECD833689B037D
:100D5000F7D5F1E60038024000004742007000403D
:100D6000554A136F43F001031367FFF757FD524FC6
:100D7000064641F2883804E0FFF750FD801B4045ED
:100D8000D1D83B6F9A07F7D5002D3FF43DAF41E036
:100D90004A4A494E1360FFF741FD054604E0FFF75C
:100DA0003DFD401B0228BED833689907F7D423685D
:100DB000F5E6012B3FF469AF6B68E26903F480014B
:100DC00091427FF462AF226A03F03F0191427FF4C7
:100DD0005CAF616A47F6C0721A40B2EB811F7FF4C4
:100DE00054AFA26A520803F44031013AB1EB024F0A
:100DF0007FF44BAFE16A03F07062B2EB016F7FF4F6
:100E000044AF226B03F0E043B3EB027F14BF012039
:100E1000002016E7284A136C23F080531364F3E68E
:100E20004A6851023FF59EAE28E7234B1A6842F408
:100E300080221A601A6842F480321A607CE71E4BE6
:100E40001A6F42F004021A671A6F42F001021A6721
:100E50008BE7FFF7E3FC064605E0FFF7DFFC801BAE
:100E600002283FF660AF2B689901F6D4D4E9073128
:100E7000626A0B4343EA8213D4E90A20216B43EAF6
:100E80000063520843EA0173013A0C4943EA024302
:100E900001226B600A66FFF7C1FC074D044605E0BE
:100EA000FFF7BCFC001B02283FF63DAF2B689A0100
:100EB000F6D5C5E6012070470038024000004742E1
:100EC0000749CA6803024FF6FF0003F4E0630240DB
:100ED000134343F0BF6343F40033CB60704700BF5C
:100EE00000ED00E01B4BDB68C3F3022300B5C3F148
:100EF000070EBEF1040F03F1040C28BF4FF0040EDF
:100F0000BCF1060F1CD9A3F1030C4FF0FF3303FA19
:100F10000CF322EA03024FF0FF3303FA0EF321EA47
:100F2000030303FA0CF313431B010028DBB20ADBB3
:100F300000F1604000F5614080F800335DF804FB8B
:100F400000229446E7E7044A00F00F0002441376BB
:100F50005DF804FB00ED00E0FCEC00E0002807DB9E
:100F6000044A4109012300F01F00834042F8213068
:100F7000704700BF00E100E02DE9F04F00230C684E
:100F8000DFF8FCA185B04FF0010B894603E0013387
:100F9000102B00F08C800BFA03F202EA0408A24343
:100FA000F5D1D9F8041001F0030C5A0003250CF117
:100FB000FF369540012E6FEA05057BD9BCF1030F82
:100FC00040F0CE8006680CFA02F235402A4311F454
:100FD000403F0260DBD000220392DAF8442042F462
:100FE0008042CAF84420DAF8442002F48042039296
:100FF000039A23F0030202F1804203F003060F2755
:1010000002F59C32B60007FA06FC5A4F9568B842C2
:1010100025EA0C0522D007F58067B84200F08280EF
:10102000554FB84200F08480DFF858C1604500F0A9
:101030008580DFF854C1604500F08680DFF84CC140
:10104000604500F08780DFF848C160450CBF4FF075
:10105000060C4FF0070C0CFA06F635439560474A2C
:101060009268CE026FEA0805444E54BF2A4048EA0F
:101070000202B260F268414E8F0254BF2A4048EA31
:101080000202F26072688E033C4E54BF2A4048EA66
:10109000020272603268C90303F10103374954BF89
:1010A0002A4048EA0202102B0A607FF474AF05B0B0
:1010B000BDE8F08F866806EA050ED9F80C60964008
:1010C00046EA0E068660466826EA080EC1F3001658
:1010D0009E4046EA0E064660C66806EA050ED9F846
:1010E0000860964046EA0E06BCF1020FC6607FF427
:1010F00069AFDE0800EB86060196376AD9F8106002
:10110000009703F0070E4FEA8E0E0F2706FA0EF631
:1011100007FA0EFE009F27EA0E0E019F46EA0E0612
:101120003E624FE74FF0010C0CFA06F6354395E7A7
:101130004FF0020C0CFA06F635438FE74FF0030C24
:101140000CFA06F6354389E74FF0040C0CFA06F664
:10115000354383E74FF0050C0CFA06F635437DE77F
:10116000C66806EA050ED9F80860964046EA0E06FB
:10117000C66027E70000024000080240003C014032
:1011800000380240000C02400010024000140240EF
:101190000018024002B9090481617047436901EAFD
:1011A000030221EA030141EA02418161704700BF65
:1011B0000268116938B50446C068A36821F440513B
:1011C00001432069116103436069D1680343E06909
:1011D00021F4164121F00C0103430B43D360536902
:1011E000A069234923F4407303438A42536105D025
:1011F000204B9A4202D0FFF7C7FB01E0FFF7D4FB78
:10120000E2691921B2F5004FD4E90053A0FB0101B6
:1012100013D09A009B0FFEF7DBFF174AA2FB0013C7
:101220005B09642101FB130000013230A2FB0020A6
:101230001B0103EB5013AB6038BDDA184FF000030D
:101240005B41FEF7C5FF0C4AA2FB0031490964234C
:1012500003FB1103DB003233A2FB0323C3F342126F
:101260001B0902EB011203F4F8731344AB6038BDA1
:1012700000100140001401401F85EB5170B310B500
:1012800090F84130044603F0FF0213B32268242390
:1012900084F84130D36823F400532046D360FFF72D
:1012A00087FF2368196921F490411961596921F078
:1012B0002A015961D96800224FF0200C41F40051F5
:1012C000D960626484F841C084F842C01046626309
:1012D00010BD80F84020FFF76DF9D7E70120704777
:1012E0002DE9F843044690F8410020284ED1884665
:1012F00009B1164612B90120BDE8F8831F464FF028
:1013000000092123C4F8449084F84130FFF786FA9D
:10131000A368A684B3F5805F0546E68439D0E28CE5
:10132000236892B2AAB11A68160604D4791C1ED199
:101330001A681206FCD5B8F1000F21D018F8012B5D
:101340005A60E28C013A92B2E284E28C92B2002AB4
:10135000E9D11A68520604D4781C20D11A685106C3
:10136000FCD5202384F841300020BDE8F883FFF746
:1013700055FA401B87421BD3D7B12368DA68D2E7FE
:1013800039F8022BC2F308025A60DAE70220BDE8FE
:10139000F8832369002BC2D1C1469846BFE7FFF707
:1013A0003DFA431B9F4203D317B12368DA68D0E7A5
:1013B000202384F841300320BDE8F88330B583B0A2
:1013C000194B1A491A4D002201921A6C42F08052B0
:1013D0001A641B6C03F0805301930122019B0A6481
:1013E000FFF71CFA044605E0FFF718FA001BB0F5FA
:1013F0007A7F16D86B68DA03F6D50C4B0C4D0122B8
:101400005A64FFF70BFA044605E0FFF707FA001BE2
:10141000B0F57A7F05D86B689B03F6D5002003B042
:1014200030BD032003B030BD0038024000000E4242
:1014300000700040704700BF90F83D30012B2FD165
:1014400003681849022280F83D20DA688B4242F096
:101450000102DA6019D0B3F1804F16D0124A9342DC
:1014600013D002F5806293420FD002F5806293425E
:101470000BD002F57842934207D002F570529342A6
:1014800003D0A2F59432934204D19A6802F0070285
:10149000062A03D01A6842F001021A600020704741
:1014A000012070470000014000040040704700BF69
:1014B000704700BF704700BF704700BF036870B53A
:1014C000DE681D69A907044601D5B20751D4690732
:1014D00001D572073AD42B0701D5300724D4EA0688
:1014E00001D5F30610D4E80701D5F10757D42A0631
:1014F00001D533065BD4680601D571065FD4AA0610
:1015000001D5B30642D470BD23686FF010021A6192
:1015100008222277DB6913F4407F204663D0FFF76F
:10152000C7FF00232377DEE723686FF008021A6104
:1015300004222277DB699907204651D1FFF7B6FFD5
:101540002046FFF7B7FF00232377C8E723686FF033
:1015500004021A61022222779B6913F4407F20461D
:101560003BD1FFF7A3FF2046FFF7A4FF002323771B
:10157000B1E76FF002021A61012202779B699B07B3
:1015800025D0FFF795FF00232377A0E723686FF0AE
:10159000200220461A61BDE8704000F0C3B82368FD
:1015A0006FF001021A612046FFF7A2F89FE7236857
:1015B0006FF080021A61204600F0B6F89BE72368BE
:1015C0006FF040021A612046FFF776FF97E7FFF7BA
:1015D0006DFF2046FFF76EFFD5E7FFF769FFC5E710
:1015E000FFF766FFAFE7FFF761FF2046FFF762FFF7
:1015F00097E700BF324A0368904210B44CD0B0F174
:10160000804F38D0A2F57C42904234D002F58062FF
:10161000904230D002F5806290422CD002F57842A0
:10162000904239D0274A904229D002F580629042F8
:1016300025D002F58062904221D0A2F598329042E6
:101640001DD002F58062904219D002F5806290426E
:1016500015D00A688C684969C46223F080030B4383
:10166000826202685DF8044B012142F004020260CC
:101670004161036070474A6823F070031343CC68EC
:101680004A6923F44073234323F080038C68134397
:101690000A68C4628262E4E74C68CA6823F0700397
:1016A000234323F4407313438A684C69C2620A6877
:1016B00082620A69026323F080032343D1E700BFFB
:1016C000000001400040014050B310B590F83D309B
:1016D000044603F0FF02F3B12146022384F83D30B3
:1016E00051F8040BFFF786FF012384F8463084F895
:1016F0003E3084F83F3084F8403084F8413084F83C
:10170000423084F8433084F8443084F8453084F81B
:101710003D30002010BD80F83C20FFF78BFEDBE75A
:1017200001207047704700BF704700BF00F10803F9
:101730004FF0FF310022C0E90131C0E903330260FC
:10174000704700BF00230361704700BF30B40D68CD
:101750006B1C10D000F108031C465B681A68AA4293
:10176000FAD902684B60013299608C60616008614F
:1017700030BC0260704704696368F2E7034602699F
:101780009968406810B454688160486010689C4251
:1017900008BF51600138002119615DF8044B1060E9
:1017A000704700BF70B5054601F094F995F84530D3
:1017B0005CB2002C14DD05F1240603E0631EDAB2EE
:1017C0005CB26AB16B6A304653B100F051FE00283A
:1017D000F4D000F00BFF631EDAB25CB2002AF1D144
:1017E000FF2385F8453001F097F901F073F995F87A
:1017F00044305CB2002C14DD05F1100603E0631EDA
:10180000DAB25CB26AB12B69304653B100F030FEF7
:101810000028F4D000F0EAFE631EDAB25CB2002ABF
:10182000F1D1FF2385F84430BDE8704001F074B970
:1018300058B370B5C56B0446F5B1026CA2FB052523
:10184000D5B90E4601F046F9D4E90F232168A56306
:1018500003FB02F2D31A0A44A2600B44FF2284F86D
:1018600044206160E36084F8452046BB2369ABB93E
:1018700001F052F9012070BD4FF0500383F311883D
:10188000BFF36F8FBFF34F8FFEE74FF0500383F32B
:101890001188BFF36F8FBFF34F8FFEE704F1100085
:1018A00000F0E6FD0028E3D04FF0E0234FF0805237
:1018B000C3F8042DBFF34F8FBFF36F8FD8E704F148
:1018C0001000FFF733FF04F12400FFF72FFFCFE7ED
:1018D00070B582B040B10446A1FB040323B901FBFB
:1018E00004F010F1510F08D94FF0500383F3118821
:1018F000BFF36F8FBFF34F8FFEE750301646019155
:1019000001F006FA054660B1019969B100F1500392
:10191000C5E90F412B6001212846FFF789FF85F8B3
:101920004C60284602B070BD0346F1E7F0B585B0C3
:101930000192002800F084800E460446002941D020
:1019400000F05AFE002849D001F0C4F8A56B002D24
:101950007FD1019B8BB302A800F0FAFD2F4601F066
:10196000DBF800F0ABFC01F0B5F894F84430FF2B45
:1019700008BF84F8447094F84530FF2B08BF84F802
:10198000457001F0C9F801A902A800F0EDFD00289A
:1019900030D101F09FF8A36B002B38D001F0BCF8D8
:1019A0002046FFF7FFFE00F091FC01F093F8A56BD5
:1019B000002D4ED1019B002BD1D101F0ADF80020BC
:1019C00005B0F0BD036C002BBAD04FF0500383F389
:1019D0001188BFF36F8FBFF34F8FFEE7019B002B82
:1019E000B2D04FF0500383F31188BFF36F8FBFF372
:1019F0004F8FFEE72046FFF7D5FE00F067FC01F0B1
:101A000069F8A36B002BD8D001F086F8CDE701F080
:101A100083F8019904F1240000F0DCFC2046FFF774
:101A2000C1FE00F053FC0028BFD14FF0E0234FF07F
:101A30008052C3F8042DBFF34F8FBFF36F8FB4E70D
:101A40004FF0500383F31188BFF36F8FBFF34F8FB5
:101A5000FEE7226C52B1E168A36811449942E1604B
:101A600024BF2168E160304601F080FF2369013D19
:101A7000A5631BB901F050F80120A1E704F11000A3
:101A800000F0F6FC0028F5D04FF0E0234FF0805234
:101A9000C3F8042DBFF34F8FBFF36F8FEAE700BF8A
:101AA000F0B1E1B170B4144D00242B46224603E09E
:101AB000082A03F108030DD05E68864219D001326E
:101AC000002CF5D11E68002E08BF1C46082A03F121
:101AD0000803F1D10CB1C4E9001070BC7047704725
:101AE0004FF0500383F31188BFF36F8FBFF34F8F15
:101AF000FEE705EBC204EEE73801002070B50446AE
:101B00000E46154600F0E6FF94F84430FF2B04BF64
:101B1000002384F8443094F84530FF2B04BF0023A1
:101B200084F8453000F0F8FFA36B23B12046BDE8F0
:101B30007040FFF737BE04F124002A46314600F01A
:101B400063FC2046BDE87040FFF72CBE2DE9F8434A
:101B5000294A2A4C2A4B2B4D2768D2F80080D3F80B
:101B600000900446286804300E46FFF707FE40B98F
:101B70002B682549DB6A01229A400B6823EA02039D
:101B80000B60631C16D02B683C195C600BD2296873
:101B900040460431FFF7DAFD1C4B1A68A24200D917
:101BA0001C60BDE8F883296848460431BDE8F84365
:101BB000FFF7CCBD66B92B687A1E5A60002FF2D1B0
:101BC000296840460431FFF7C1FD104B1B68E8E768
:101BD0000F4B29681C685A688A602E682868296833
:101BE0002D6801341C609468F46004300431606036
:101BF00091606B61BDE8F883E80100209C01002042
:101C0000E4010020A00200209801002080010020B3
:101C1000A4010020F8B50F4D2B68CBB10E4F0F4E2D
:101C200000F058FFFB68DC68201DFFF7A7FD336854
:101C3000013B33602B68013B2B6000F06DFF206B94
:101C400001F042F9204601F03FF92B68002BE7D163
:101C5000F8BD00BFB8010020BC010020A001002099
:101C600008B50B4C4FF0E0264FF08055FFF7D2FF40
:101C70002368012BFAD9C6F8045DBFF34F8FBFF379
:101C80006F8FFFF7C7FF2368012BF4D8EEE700BF83
:101C9000140200202DE9F04F624B1C68013483B020
:101CA0001C60002C00F091805F490B689C4275D34A
:101CB000DFF888E1DEF800301B68002B00F0AE8012
:101CC0004FF0000C59485A4F5A4D0191664657E063
:101CD000D3E9022AD3F81480C2F808A0CAF8042075
:101CE000D8F804208A42D8F8002008BFC8F804A019
:101CF000013A5E61C8F80020D3F82880B8F1000FDF
:101D000011D0D3E9072AC2F808A0CAF80420D8F8ED
:101D100004204A45D8F8002008BFC8F804A0013ABA
:101D20009E62C8F80020DA6AD5F800B002EB82089B
:101D30004FF0010900EB880A09FA02F949EA0B0998
:101D4000C5F80090DAF80490C3F80890D9F808B004
:101D5000C3F80CB0CBF80410C9F80810C3F814A0ED
:101D600050F828303968013340F82830DEF8003068
:101D7000C96A1B688A4288BF4FF0010C002B42D011
:101D8000DEF80030DB68DB685A68944203F1040136
:101D900003F118099CD201990A6003E02348244FFB
:101DA0004FF0000C3B68244ADB6A126803EB8303A4
:101DB00050F82330022B28BF4FF0010C002A0CBF33
:101DC0006046012003B0BDE8F08F1C4B1A68126812
:101DD00042B14FF0500383F31188BFF36F8FBFF30D
:101DE0004F8FFEE7164A1868116819601549106090
:101DF0000A6801320A601A6812684AB90A494FF043
:101E0000FF330B6051E701994FF0FF330B60C9E7D7
:101E10001B680549DB681B680B6046E70348044FF5
:101E20009C46F1E79C010020800100201402002064
:101E3000A0020020980100208C010020E801002071
:101E4000E4010020880100202DE9F04FDFF87481C3
:101E5000D8F80030013B83B0C8F80030D8F80090C3
:101E6000B9F1000F40F090804F4B1B68002B00F041
:101E70008B80DFF854C1DCF80030002B00F090803C
:101E80004A4BDFF848E14A4E0193DCF80C30DB683E
:101E90009A6AD3E9070154688160486003F1180029
:101EA000844208BF51601168C3F82890013911605D
:101EB000D3E902205969906042604A68DEF8004028
:101EC0001D1DAA4208BF48600868DA6A0138086028
:101ED00001209040204302EB8201CEF800003548FB
:101EE00006EB810700687C68D0F82CA056F821002A
:101EF000D4F808B09C6001305245C3F80CB0CBF860
:101F00000450A5605F6146F8210002D9019B0122BF
:101F10001A60DCF80030002BB7D1274B1A68126822
:101F2000002A38D01A68254BD26812681A60244DEE
:101F30002C689CB1019F012605E0FFF7ABFE00B1C4
:101F40003E60013C09D0D8F80030002BF5D02B685A
:101F5000013C03F101032B60F5D12C60019B1B6850
:101F600093B14FF0E02313494FF080520968C3F852
:101F7000042DBFF34F8FBFF36F8F00F0CDFD012411
:101F8000204603B0BDE8F08F00F0C6FD00242046D7
:101F900003B0BDE8F08F094B4FF0FF321A60C6E77F
:101FA000024B0193C3E700BFA00100208C01002079
:101FB00014020020A0020020E8010020800100207F
:101FC0009001002078010020D0010020980100201D
:101FD0002DE9F8439600074630468946984600F0BA
:101FE00097FE002800F09D8005465C2000F090FEE2
:101FF0000446002800F092805C22002101F0CAFA19
:10200000256328463246A52101F0C4FA256BB9F1B3
:10201000000F0FD009F1FF3C09F10F0104F1330E5D
:102020001CF8012F0EF8012F0AB18C45F8D10023BE
:1020300084F84330089B062B08D94FF0500383F3F4
:102040001188BFF36F8FBFF34F8FFEE7089BE362EA
:1020500004F10409E3644846FFF774FB04F1180037
:10206000FFF770FB089B2461043EA819C3F1070524
:10207000A56164624246394620F0070000F016FD73
:10208000099B206003B11C6000F024FD404A414ED2
:102090001368013313603368002B4CD03E4FE16A64
:1020A0003B68002B41D03D4DDFF810813C48D8F80B
:1020B000002001EB810305EB830E0132DEF804C042
:1020C000C8F8002062649B00DCF80820C4F808C04F
:1020D000E260C2F80490EA58CCF808900132D0F8D7
:1020E00000C0C4F814E0EA5001238B4043EA0C031B
:1020F000036000F011FD3B6873B13268E36AD26A95
:102100009A4209D24FF0E0234FF08052C3F8042DD9
:10211000BFF34F8FBFF36F8F012004E0284600F01C
:10212000D3FE4FF0FF30BDE8F8833368DB6A8B42A3
:1021300098BF3460B7E734601368012B03D0E16ABD
:10214000164D154FB0E7154D2F4605F18C08384652
:102150001437FFF7EBFA4745F9D1DFF86480114FE8
:102160004046FFF7E3FA3846FFF7E0FA0E48FFF77C
:10217000DDFA0E48FFF7DAFA0D48FFF7D7FA0D4BF4
:10218000E16AC3F800800C4B1F60034F8CE700BF6F
:10219000A0010020A00200209401002014020020D1
:1021A00098010020EC010020D0010020BC0100209B
:1021B000A4010020E8010020E401002084010020A7
:1021C0000002002010B550B94FF0E0234FF08052CC
:1021D000C3F8042DBFF34F8FBFF36F8F10BD124CA8
:1021E0002368013323602368012B08D04FF050038C
:1021F00083F31188BFF36F8FBFF34F8FFEE700218A
:10220000FFF7A4FC00F066FC236843B94FF05003CD
:1022100083F31188BFF36F8FBFF34F8FFEE7FFF794
:1022200013FE0028D0D010BD7801002030B51C4B23
:102230001C491D4887B00024CDE90043CDE90214B4
:102240002346802202A9CDE90444FFF7C1FE0128FC
:1022500003D100F085FB01280ED0013003D0134BD1
:102260001B6807B030BD4FF0500383F31188BFF3F4
:102270006F8FBFF34F8FFEE74FF0500383F311884A
:10228000BFF36F8FBFF34F8F09490A4A0A4B4FF0D4
:10229000FF350D6010601C6000F07CFCDFE700BFC4
:1022A0007C01002049444C45611C00087442000830
:1022B00080010020940100209C010020024A136844
:1022C00001331360704700BF7801002008B500F0AB
:1022D00001FC084B1B6843B94FF0500383F311888E
:1022E000BFF36F8FBFF34F8FFEE7BDE80840FFF7E6
:1022F000ABBD00BF78010020014B1868704700BFDC
:102300009C010020054B1B680BB9FFF7C3BC044AB6
:102310001368013300201360704700BF780100206C
:1023200090010020264B1B681BB1264B01221A602E
:102330007047244A10B5244C136023682168226832
:102340000968126B1B6B914203D91A68B2F1A53F61
:1023500029D0216820683431FEF728FA1B4B1B680E
:10236000B3FA83F3DBB2C3F11F0303EB8303184912
:102370009A0001EB8303885840B94FF0500383F370
:102380001188BFF36F8FBFF34F8FFEE75868083295
:10239000406858600A44904204BFD8685860C368D7
:1023A0002360236810BD5A68B2F1A53FD1D19A6865
:1023B000B2F1A53FCDD1DB68B3F1A53FC9D1CDE7DF
:1023C000780100208C010020A0020020980100204C
:1023D0001402002060B110B50A4B0C461968183180
:1023E000FFF7B4F920460121BDE81040FFF7AEBB6E
:1023F0004FF0500383F31188BFF36F8FBFF34F8FFC
:10240000FEE700BFA002002030B38C461146174AF9
:10241000F0B5034614684568D2F800E017681668FE
:10242000E56100291C6808BF6046D2F800C006F1CB
:102430001802AE68CEF8206004F1010407F1180715
:10244000776018BF4FF0FF30AA60CCF828301C60CE
:10245000BDE8F040FFF77ABB4FF0500383F31188DB
:10246000BFF36F8FBFF34F8FFEE700BFA0020020C6
:10247000C368DB68002B55D0D3E907019A6A2DE9C0
:10248000F04181604860506803F11804A0422A4876
:1024900008BF516011680068002501399D62116014
:1024A000DA6AA8B125490D684868D86101350D6020
:1024B00085681D626C6084609962214B1B68DB6AD1
:1024C00093423DBF1F4B012018600020BDE8F08102
:1024D000D3E902405969A06044604C681A4EDFF8A5
:1024E0006CE01D1DAC4208BF48600868DEF8008043
:1024F0000138086002EB820106EB810C01208900A3
:10250000DCF8047074589F60904040EA0800CEF8F0
:102510000000B868D86001344560BD60C3F814C0DD
:102520007450CAE74FF0500383F31188BFF36F8FE5
:10253000BFF34F8FFEE700BF78010020D0010020DD
:10254000A00200208C01002014020020980100202D
:10255000034A044B12681B68C0E90023704700BFA0
:10256000880100209C010020F8B518B30D46C1B1C8
:10257000044600F0AFFA2B681A4A581C11682ED096
:10258000DFF864C0D4E90060DCF80070BE421AD005
:10259000884218D800232B60012400F0BDFA2046A1
:1025A000F8BD4FF0500383F31188BFF36F8FBFF373
:1025B0004F8FFEE74FF0500383F31188BFF36F8F07
:1025C000BFF34F8FFEE7A1EB000E7345E2D95B1A14
:1025D000DCF80010126803442B60C4E900120024E8
:1025E000DBE700BF9C01002088010020014B012295
:1025F0001A6070478C010020054B1B6833B1054BF6
:102600001868B0FA80F04009400070470120704718
:102610009401002078010020F8B5104C00F05AFA1F
:1026200025681DB1BDE8F84000F076BA0C4F0D4E9C
:102630003846FFF77BF83046FFF778F80A4B1F6003
:102640000A4B2A4610210A201E60FFF741F920603C
:102650000028E7D00649FFF723FAE3E7AC020020A1
:10266000CC020020B8020020B4020020B0020020FA
:102670004C4200082DE9F047DFF88880D8F8003098
:10268000DB68DC6804F10409054648460F46FFF79D
:1026900075F894F828305A070DD423F0010384F814
:1026A00028302046236ABDE8F047184793421CD8DB
:1026B000236A98473546A3692461EE182CBF01218F
:1026C0000021B7422046A7EB05026660EED2AF427A
:1026D00001D20029ECD0D8F800004946FFF736F8BF
:1026E000236A2046BDE8F0471847054B494618685D
:1026F000FFF72CF8236A2046BDE8F047184700BFD3
:10270000B0020020B40200202DE9F04F904EDFF817
:102710004882DFF848928F4F85B04FF0000A336847
:102720001D68002D00F0E780DB681D68FFF7C6FD1F
:10273000FFF7E2FDD8F800308342044677D885429F
:10274000C8F8000040F2F38000223868291BFFF728
:10275000D5F9FFF7BBFD48B94FF0E0224FF08053A9
:10276000C2F8043DBFF34F8FBFF36F8FCDE900AACE
:10277000CDE902AA386800226946FFF7D7F8002899
:10278000CDD0009B0298002BC0F2A480029C002CAC
:10279000F0D0636913B1201DFEF7F0FFFFF7ACFD29
:1027A000D8F800309842054612D3009BC8F8005074
:1027B000013B082BDED8DFE803F015157D68841592
:1027C000157D6800DB684FF0FF311868FFF752FF96
:1027D00033681A68002AF5D1D9F800203260C9F8A8
:1027E0000030E2E794F82810019AD4F818C0246168
:1027F00041F0010384F8283012EB0C032CBF0120B8
:102800000020AB4263606DD8AA1A94454CD84807A3
:1028100022D421F0010184F82810236A2046984729
:10282000A8E7DB684FF0FF311868FFF723FF336834
:102830001A68002AF5D1D9F800203260C9F80030B2
:10284000C8F80040FFF742FD90E78C4569D8236A3D
:102850009847D4F818C05B461CEB030B2CBF4FF015
:10286000010E4FF0000E5D452046A5EB0301C4F8B4
:1028700004B02461E9D29D4202D2BEF1000FE6D03D
:102880003068211DFEF762FFC7E794F82820019BFE
:10289000A36142F0010284F82820002B4ED02B4483
:1028A000AB426360246121D8D9F80000211DFEF7F6
:1028B0004DFF5FE794F8283023F0010384F82830B7
:1028C00058E794F828309A0727D523F0010384F8B5
:1028D00028304FE7019B03999847009B002BFFF698
:1028E00049AF53E7AA4201D9002890D03068211D92
:1028F000FEF72CFF3EE7FFF7E1FCFFF7FDFCD8F801
:1029000000308342044692D8D9F80030C8F800401D
:102910001A68B2FA82F2520917E7204600F0D4FA98
:1029200028E7D9F80000211DFEF710FF75E7FFF733
:10293000CDFC21462846FFF79DFE17E74FF05003D8
:1029400083F31188BFF36F8FBFF34F8FFEE700BF94
:10295000B4020020AC020020A4020020B00200203B
:1029600000B583B0FFF758FE0D4B1B685BB10D4AF5
:102970000D490E480623CDE9003200234FF4807242
:10298000FFF726FB40B94FF0500383F31188BFF3E4
:102990006F8FBFF34F8FFEE703B05DF804FB00BFFE
:1029A000AC020020A80200205442000809270008B9
:1029B000064B19680868B0E8F04F80F30988BFF348
:1029C0006F8F4FF0000080F311887047A002002045
:1029D00008480068006880F308884FF0000080F322
:1029E000148862B661B6BFF34F8FBFF36F8F00DFFD
:1029F00000BF000008ED00E0EFF30980BFF36F8F28
:102A0000144B1A681EF0100F08BF20ED108A20E941
:102A1000F04F10602DE909004FF0500080F311884D
:102A2000BFF34F8FBFF36F8FFFF77CFC4FF00000B9
:102A300080F3118809BC19680868B0E8F04F1EF0EF
:102A4000100F08BFB0EC108A80F30988BFF36F8FB6
:102A500070470000A0020020DFF80C00016841F47C
:102A6000700101607047000088ED00E00E4B1B68AC
:102A700082B000220133019208D04FF0500383F35B
:102A80001188BFF36F8FBFF34F8FFEE74FF05003F6
:102A900083F31188BFF36F8FBFF34F8F019B002B20
:102AA000FCD002B0704700BF0C00002010B44FF003
:102AB0008073074C40F8043C21F001016FF00203E1
:102AC00040E9034140E909325DF8044B443870475E
:102AD0006D2A00084FF0500383F31188BFF36F8F06
:102AE000BFF34F8F0B4A13680133012B136000D0E3
:102AF00070474FF0E023D3F8043DDBB2002BF7D052
:102B00004FF0500383F31188BFF36F8FBFF34F8FE4
:102B1000FEE700BF0C000020084A136843B94FF0DD
:102B2000500383F31188BFF36F8FBFF34F8FFEE71E
:102B3000013B13600BB983F3118870470C00002030
:102B400008B54FF0500383F31188BFF36F8FBFF3C5
:102B50004F8FFFF7D7FB28B14FF0E0234FF08052A3
:102B6000C3F8042D002383F3118808BD4FF0E02241
:102B700000230649136193610B680549A1FB031308
:102B80009B090720013B5361106170470000002042
:102B9000D34D62104FF0E023554AD3F8001D914207
:102BA0001CD0D3F8001D534A91420ED0D3F8083DF3
:102BB000514AD96A91421AD04FF0500383F31188D9
:102BC000BFF36F8FBFF34F8FFEE74FF0500383F3D8
:102BD0001188BFF36F8FBFF34F8FFEE74FF05003A5
:102BE00083F31188BFF36F8FBFF34F8FFEE7434A24
:102BF0009B6B934208D04FF0500383F31188BFF3CF
:102C00006F8FBFF34F8FFEE730B583B03C4B002290
:102C100001921A78FF21D2B28DF8022019701B7828
:102C2000384ADBB28DF803309DF8033003F05003CF
:102C3000137043B94FF0500383F31188BFF36F8FC4
:102C4000BFF34F8FFEE79DF80330DB4313F0500FC7
:102C500011D04FF0500383F31188BFF36F8FBFF390
:102C60004F8FFEE7019B013301939DF803305B001A
:102C7000DBB28DF803309DF803301B06F2D4019BC4
:102C8000082B32D0019BC3F107031B0203F4E0635E
:102C90009DF802201C481A4903604FF0E024D2B28C
:102CA0000A70D4F8203D43F47F03C4F8203DD4F8E3
:102CB000203D002543F07F43C4F8203DC4F81C5D4F
:102CC000FFF754FF114B1D60FFF7C6FED4F8343FE9
:102CD00043F04043C4F8343FFFF77AFEFFF722FB8E
:102CE000FFF7C4FE284603B030BD0023D0E700BF85
:102CF00071C20F4170C20F41B1290008F9290008C3
:102D000000E400E0E4020020E00200200C000020CB
:102D1000F8B5431E0A332CD810F0070300F108045D
:102D200031D1614DFFF7CAFA2B682646002B4BD0F4
:102D3000002C23DB5D4F3E68A6421FD35C485D49F3
:102D400003688B4235D3DFF87CE1734531D8844684
:102D50005868A04252D21A68002A4FD08A4223D221
:102D60004FF0500383F31188BFF36F8FBFF34F8F82
:102D7000FEE74D4DFFF7A2FA2B681BB3FFF7A6FA4B
:102D800000252846F8BDA3F10902A242F1D3464D21
:102D90001030C41AFFF792FA2B682646A3B1002E12
:102DA000ECDB002CC6D1E9E77245D9D89C46134626
:102DB000CEE74FF0500383F31188BFF36F8FBFF35B
:102DC0004F8FFEE7002634463A493B4B4F0718BF6A
:102DD0000731374F18BF21F0070123F007035A1AB4
:102DE0003960084635492B600A6030490A60002185
:102DF0007960C3E90011C0E90032D0E72A689A423D
:102E0000BCD0DCF8005008358D420FD375450DD885
:102E10001968CCF80010A04211D24FF0500383F390
:102E20001188BFF36F8FBFF34F8FFEE74FF0500352
:102E300083F31188BFF36F8FBFF34F8FFEE7A0EBD3
:102E4000040EBEF1100F11D91A19500708D04FF017
:102E5000500383F31188BFF36F8FBFF34F8FFEE7EB
:102E6000C2F804E020461951CCF8002013490C6840
:102E7000361AA64238BF0E6011493E600A6840F01B
:102E8000004000241C60013258600A60FFF71EFAFF
:102E90006B073FF476AF4FF0500383F31188BFF315
:102EA0006F8FBFF34F8FFEE7F8020020F40200207F
:102EB000FC02002004030020FC3E0020F002002061
:102EC000EC020020033F0020F8B1F0B53D4DA0F129
:102ED0000804AC4283B00FD33B4EB4420CD850F838
:102EE000043C002B12DB4FF0500383F31188BFF337
:102EF0006F8FBFF34F8FFEE74FF0500383F31188BE
:102F0000BFF36F8FBFF34F8FFEE7704750F8082C69
:102F100042B14FF0500383F31188BFF36F8FBFF3BB
:102F20004F8FFEE723F0004340F8043C0190FFF789
:102F3000C5F9264A0198136850F8041C244F0B4425
:102F400013603B461A461B689C42FBD8BA4203D02A
:102F5000AA4216D3B24214D855685619B44223D0A7
:102F60006518AB4216D040F8083CA24218BF146066
:102F7000184A13680133136003B0BDE8F040FFF74F
:102F8000A5B94FF0500383F31188BFF36F8FBFF3E0
:102F90004F8FFEE7104D2D68AB42E4D0D3E90050CF
:102FA0000144C4E90051E0E72944501883425160CC
:102FB000DED109480068834201D01446EEE7136071
:102FC000D6E700BF04030020033F0020F4020020E6
:102FD000FC020020E8020020F80200202DE9F04762
:102FE000089D0E4604460F46002B4AD194468C4558
:102FF000B2FA82F260D942B1C2F12003974020FABE
:1030000003F30CFA02FC1F4394404FEA1C4E1FFAD4
:103010008CF6B7FBFEF1230C0EFB117743EA074356
:1030200001FB06F098420AD91CEB030301F1FF37BC
:1030300080F01581984240F21281023963441B1AD4
:10304000A4B2B3FBFEF00EFB103344EA034400FBD2
:1030500006F6A6420AD91CEB040400F1FF3380F007
:103060000081A64240F2FD806444023840EA0140FB
:10307000A41B00211DB1D4400023C5E90043BDE8D5
:10308000F0878B4205D90DB1C5E900010021084642
:10309000F5E7B3FA83F1002946D1B34202D3824265
:1030A00000F2F580841A66EB030201201746002D1A
:1030B000E5D0C5E90047E2E7002A40F09380A1EBA4
:1030C0000C034FEA1C471FFA8CFE0121B3FBF7F6F5
:1030D00007FB1630230C43EA00430EFB06F0984230
:1030E00008D91CEB030306F1FF3802D2984200F224
:1030F000D08046461B1AA4B2B3FBF7F007FB10338F
:1031000044EA03440EFB00FEA64508D91CEB040468
:1031100000F1FF3302D2A64500F2B6801846A4EBB8
:103120000E0440EA0640A5E7C1F120078B4022FAD1
:1031300007FC4CEA030C06FA01FE20FA07F426FA13
:1031400007F344EA0E0400FA01F84FEA1C404FEA84
:103150001449B3FBF0FE1FFA8CF600FB1E3349EA5C
:1031600003430EFB06F9994502FA01F20BD91CEB59
:1031700003030EF1FF3A80F08580994540F282808A
:10318000AEF1020E6344A3EB0909A4B2B9FBF0F35C
:1031900000FB139944EA094403FB06F6A64208D94A
:1031A0001CEB040403F1FF3068D2A64266D9023B4F
:1031B000644443EA0E40A41BA0FB02E6B4427346FB
:1031C000B14652D34FD05DB1B8EB030264EB0904B2
:1031D00004FA07F722FA01F31F43CC40C5E9007453
:1031E00000214CE7C2F1200120FA01F30CFA02FCA5
:1031F00026FA01F1964033434FEA1C471FFA8CFE32
:10320000B1FBF7F007FB1016190C41EA064100FB71
:103210000EF68E4204FA02F408D91CEB010100F10B
:10322000FF382DD28E422BD902386144891B9BB2C4
:10323000B1FBF7F607FB161143EA014306FB0EF15B
:10324000994208D91CEB030306F1FF3814D29942C6
:1032500012D9023E63445B1A46EA004136E739461A
:10326000EDE6184602E7F045ADD2BEEB020366EB91
:103270000C060138B146A6E74646ECE7034698E758
:103280004046D3E7D6467EE76444023847E708461F
:103290000DE7023E63442DE7014B1868704700BFFD
:1032A0001000002070B50D4D0D4C641BA4100026BD
:1032B000A64209D10B4D0C4C00F028FF641BA41052
:1032C0000026A64205D170BD55F8043B984701364B
:1032D000EEE755F8043B98470136F2E7B4420008A0
:1032E000B4420008B4420008B84200080FB407B561
:1032F000064904AB086853F8042B8168019300F079
:1033000031F803B05DF804EB04B070471000002002
:103310009368013B002B10B4936008DA9469A342D0
:1033200001DB0A2903D15DF8044B00F057BC136898
:10333000581C1060197008465DF8044B7047F8B5CA
:1033400006460F461446D518AC4201D1002007E0CE
:1033500014F8011B3A463046FFF7DAFF431CF3D15D
:10336000F8BD00002DE9F04F0D469DB0144698467B
:10337000064618B1036A0BB900F092FB6B6ED907D1
:1033800005D4AB899A0502D4A86D00F062F9AB8927
:103390001B0701D52B699BB92946304600F002F97D
:1033A00070B16B6EDC0704D54FF0FF301DB0BDE887
:1033B000F08FAB899805F7D4A86D00F04BF9F3E7CF
:1033C0000023099320238DF82930CDF80C80302379
:1033D000DFF8AC818DF82A304FF0010923469A4678
:1033E00013F8012B0AB1252AF9D1BAEB040B0BD043
:1033F0005B46224629463046FFF7A1FF013000F028
:10340000A780099A5A4409929AF80030002B00F0DC
:103410009F8000234FF0FF32CDE905230AF1010A16
:10342000049307938DF853301A935446052214F8E9
:10343000011B5348FCF7ECFE049AD8B9D10644BFEF
:1034400020238DF85330130744BF2B238DF85330BE
:103450009AF800302A2B15D0079A544600204FF0D6
:103460000A0C214611F8013B303B092B4BD9B0B176
:10347000079214E0A0EB080309FA03F31343049343
:10348000A246D2E7039B191D1B680391002BBBBF0B
:103490005B4242F0020207930793B8BF049223787D
:1034A0002E2B0AD163782A2B32D1039B1A1D1B685D
:1034B000039243EAE37302340593DFF8D4A0217842
:1034C00003225046FCF7A4FE38B1049BA0EB0A008F
:1034D0004022824013430134049314F8011B29480D
:1034E0008DF828100622FCF793FE00283FD0264BCB
:1034F0001BBB039B073323F0070308330393099B8C
:103500003B4409936AE70CFB02320C460120A8E712
:1035100000230134059319464FF00A0C204610F899
:10352000012B303A092A03D9002BC6D00591C4E7F4
:103530000CFB012104460123F0E703AB00932A466C
:10354000124B04A93046AFF300800746781CD6D151
:103550006B6ED90705D4AB899A0502D4A86D00F02B
:1035600079F8AB895B063FF51FAF09981EE703ABFF
:1035700000932A46054B04A9304600F0D9F8E4E749
:103580007842000882420008000000003F33000833
:103590007E42000802440346934200D1704703F87C
:1035A000011BF9E738B5294B054618680C4618B1D8
:1035B000036A0BB900F074FAB4F90C30190722D47D
:1035C000DA0607D409222A6043F04003A3814FF0B2
:1035D000FF3033E0580712D5616B41B104F1440369
:1035E000994202D0284600F037FB00236363A38989
:1035F00023F02403A3810023636023692360A3894C
:1036000043F00803A38123694BB9A38903F4207312
:10361000B3F5007F03D02146284600F09FFBB4F9A4
:103620000C3013F001020AD00022A26062695242FB
:10363000A261226942B913F08000C5D138BD990753
:1036400058BF6269A260F4E70020F7E7100000208D
:103650007047704770472DE9F047164698468A68CC
:103660000B69DDF820909342B8BF1346336091F8A0
:10367000432007460C460AB101333360236899069C
:1036800042BF336802333360256815F0060506D162
:1036900004F1190AE36832689B1AAB4226DC94F8FD
:1036A00043302268003B18BF012392062BD404F15B
:1036B000430241463846C84701301ED0236822697C
:1036C00003F00603042B02BFE5683368ED1AA36814
:1036D0000CBF25EAE57500259342C4BF9B1AED187F
:1036E00000261A34B5421AD1002008E001235246C0
:1036F00041463846C847013003D14FF0FF30BDE89E
:10370000F0870135C6E7E1185A1C302081F84300E4
:10371000224494F8451082F843100233C7E701238E
:10372000224641463846C8470130E6D00136D9E73F
:103730002DE9FF470F7E0C9E782F914680460C4660
:103740009A4601F1430207D8622F0AD8002F00F0F1
:10375000D180582F00F0B88004F1420684F84270FE
:103760003AE0A7F16303152BF6D801A151F823F035
:10377000C9370008DD3700085937000859370008F5
:103780005937000859370008DD3700085937000855
:10379000593700085937000859370008DB38000846
:1037A00007380008953800085937000859370008CD
:1037B000FD38000859370008073800085937000855
:1037C000593700089D38000833681A1D1B6832609D
:1037D00004F1420684F8423001239CE033682068FB
:1037E000191D3160060601D51D6803E04506FBD5AD
:1037F000B3F90050002D03DA2D236D4284F84330D5
:1038000058480A2311E021683368080653F8045B1E
:1038100002D4490648BFADB26F2F5248336014BF7F
:103820000A230823002184F843106668A660002E4E
:1038300005DB21682E4321F0040121604BD01646A0
:10384000B5FBF3F103FB1157C75D06F8017D2F4669
:10385000BB420D46F4D9082B0BD12368DF0708D5EE
:10386000236961689942DEBF302306F8013C06F106
:10387000FF36921B2261CDF800A04B4603AA2146D9
:103880004046FFF7E8FE01304AD14FF0FF3004B068
:10389000BDE8F087236843F020032360324878278F
:1038A00084F84570236831681F0651F8045B02D420
:1038B0005F0648BFADB23160D90744BF43F0200373
:1038C00023601DB11023ADE72648E9E7236823F004
:1038D00020032360F6E71646BDE733682568616973
:1038E000181D30602E061B6801D5196002E06806BD
:1038F000FBD51980002323611646BCE733681A1DE7
:1039000032601E68626800213046FCF781FC08B115
:10391000801B606063682361002384F84330AAE75A
:103920002369324649464046D0470130ADD023682E
:103930009B0713D4E068039B9842B8BF1846A6E7DC
:103940000123324649464046D04701309DD00135DB
:10395000E36803995B1AAB42F2DCEBE7002504F164
:103960001906F5E7894200089A4200080A44914284
:1039700000F1FF3300D1704710B511F8014B03F887
:10398000014F9142F9D110BD002310B50446C0E9A2
:103990000033C0E90433836081814366C28183615F
:1039A000194608225C30FFF7F5FD0D4B63620D4BA5
:1039B000A3620D4BE3620D4B23630D4B24629C42CB
:1039C00006D003F16802944202D0D0339C4205D164
:1039D00004F15800BDE81040FFF73ABE10BD00BF2B
:1039E000D13A0008F33A00082B3B00084F3B00088F
:1039F000083F0020024A0349034800F0D1B800BF45
:103A000060000020DD3E00081400002041680C4BDF
:103A1000994210B5044601D000F060FAA168094B44
:103A2000994202D0204600F059FAE168064B9942CB
:103A300004D02046BDE8104000F050BA10BD00BFD1
:103A4000083F0020703F0020D83F002010B50B4BEE
:103A50000B4C0C4A1A60204600220421FFF794FF09
:103A600004F1680001220921FFF78EFF04F1D00064
:103A70000222BDE810401221FFF786BF404000201F
:103A8000083F0020F53900080148FFF7E2BD00BFFC
:103A9000053F00200148FFF7DDBD00BF053F0020C6
:103AA00010B50446FFF7F0FF236A1BB1BDE81040D4
:103AB000FFF7F0BF044B2362044B1B68002BF5D1CA
:103AC000FFF7C4FFF2E700BF0D3A000840400020B6
:103AD00010B50C46B1F90E1000F050F80028ABBF3D
:103AE000636DA3891B1823F48053ACBF6365A38166
:103AF00010BD2DE9F0411F468B89DB0505460C46BC
:103B0000164605D5B1F90E100223002200F024F864
:103B1000A389B4F90E1023F48053A38132463B46A7
:103B20002846BDE8F04100F0E1B810B50C46B1F907
:103B30000E1000F011F8431CA38915BF606523F433
:103B4000805343F48053A38118BFA38110BDB1F902
:103B50000E1000F08DBA000038B5074D0446084637
:103B6000114600222A601A46FCF7FCFD431C02D1D4
:103B70002B6803B1236038BD4C40002038B5074D99
:103B800004460846114600222A601A46FCF7C2FD88
:103B9000431C02D12B6803B1236038BD4C40002088
:103BA0002DE9F8430746884614460026D4E90195D6
:103BB000B9F1010905D52468002CF7D13046BDE8DC
:103BC000F883AB89012B07D9B5F90E30013303D047
:103BD00029463846C04706436835E9E7F8B50E463A
:103BE0001446054618B1036A0BB9FFF759FFA369DC
:103BF000A360A3891A0701D5236943B92146284642
:103C0000FFF7D0FC18B14FF0FF373846F8BD2368F6
:103C10002269981A6369F6B28342374605DC214669
:103C2000284600F05BF90028EDD1A368013BA360B2
:103C300023685A1C22601E706269431C9A4204D099
:103C4000A389DB07E1D50A2EDFD12146284600F003
:103C500045F90028D9D0D6E738B50546002941D026
:103C600051F8043C0C1F002BB8BFE41800F022FAF6
:103C70001D4A136833B9636014602846BDE83840B4
:103C800000F01EBAA34208D9206821188B4201BF58
:103C900019685B6809182160EDE71A465B680BB18B
:103CA000A342FAD911685018A0420BD120680144F0
:103CB000501883421160E0D118685B685360084473
:103CC0001060DAE702D90C232B60D6E720682118B0
:103CD0008B4204BF19685B68636004BF09182160E8
:103CE0005460CAE738BD00BF4840002038B5074DD2
:103CF00004460846114600222A601A46FCF718FDC1
:103D0000431C02D12B6803B1236038BD4C40002016
:103D100070B50C46B1F90E10002996B015461E4636
:103D20000DDAA38913F0800F4FF0000114BF402378
:103D30004FF48063002031602B6016B070BD6A467E
:103D400000F0A6F90028ECDB019901F47041A1F51F
:103D50000053594259414FF48063EBE78B89F7B523
:103D60009D0706460C4607D504F1470323602361EF
:103D70000123636103B0F0BD01AB6A46FFF7C8FFE2
:103D8000009F05463946304600F0F2F848B9B4F9CC
:103D90000C309A05EED423F0030343F00203A38111
:103DA000E2E7A389206043F08003A381019BC4E97B
:103DB00004075BB1B4F90E10304600F087F928B162
:103DC000A38923F0030343F00103A381A3891D43C7
:103DD000A581CFE7B1F90C202DE9F0411607054682
:103DE0000C4654D44B68002B02DC0B6C002B48DDD6
:103DF000E66A002E45D0002312F480522F68216A13
:103E00002B6030D0626DA389590705D56368D21A3B
:103E1000636B0BB1236CD21A0023E66A216A284631
:103E2000B047431CA38906D129681D292BD82A4AEB
:103E3000CA40D60727D500226260D90422692260D1
:103E400004D5421C01D12B6803B96065616B2F60FA
:103E5000B9B104F14403994202D02846FFF7FCFEB1
:103E6000002363630DE001232846B0470246501C3F
:103E7000C9D12B68002BC6D01D2B01D0162B1ED10B
:103E80002F60002022E043F040031BB21BE00F69CB
:103E9000002FF6D093070E6808BF4B690F6018BF5C
:103EA0000023A6EB07088B60B8F1000FE9DD216A5B
:103EB000A66A43463A462846B047002808DCB4F9CB
:103EC0000C3043F04003A3814FF0FF30BDE8F08198
:103ED0000744A8EB0008E7E70100402038B50B696C
:103EE00005460C4613B90025284638BD18B1036AAB
:103EF0000BB9FFF7D5FDB4F90C30002BF3D0626E8F
:103F0000D00704D4990502D4A06DFFF7A2FB284680
:103F10002146FFF75FFF636EDA070546E4D4A38905
:103F20009B05E1D4A06DFFF795FBDDE770B50F4E63
:103F30000C463168054611B900F0D8F830602146CA
:103F4000284600F0D3F8431C03D14FF0FF3420463D
:103F500070BDC41C24F00304A042F8D0211A2846E6
:103F600000F0C4F80130F2D1EFE700BF4440002078
:103F70002DE9F843CD1C25F0030508350C2D38BF7D
:103F80000C25002D064601DBA94204D90C23336021
:103F90000020BDE8F883DFF8D48000F08BF8D8F873
:103FA00000301C4644BB29463046FFF7BFFF431C88
:103FB000044658D1D8F800402746002F43D1002CA2
:103FC0004BD023683946304604EB030900F08EF8E5
:103FD000814542D121686D1A29463046FFF7A6FF78
:103FE00001303AD023682B442360D8F800305A6857
:103FF00062BBC8F800700FE02268521B20D40B2A65
:1040000017D96119A342256018BF5960636808BFBA
:10401000C8F8001062514B60304600F051F804F1CE
:104020000B00231D20F00700C21A1CBF1B1AA3504F
:10403000AFE76268A3420CBFC8F800205A60EBE704
:1040400023466468AEE73C467F68B6E71A465B687D
:10405000A342FBD100235360DEE70C2333603046DC
:1040600000F02EF894E70560D6E700BF4840002036
:1040700038B5064D0023044608462B60FCF766FB66
:10408000431C02D12B6803B1236038BD4C40002093
:1040900038B5074D00230446084611462B60FCF74F
:1040A00059FB431C02D12B6803B1236038BD00BF0C
:1040B0004C4000200148FFF7CCBA00BF043F00206D
:1040C0000148FFF7C7BA00BF043F002038B5064DCE
:1040D0000023044608462B60FCF742FB431C02D138
:1040E0002B6803B1236038BD4C40002038B5064D25
:1040F0000023044608462B60FCF736FB431C02D124
:104100002B6803B1236038BD4C400020F8B500BFD8
:10411000F8BC08BC9E467047F8B500BFF8BC08BCA8
:044120009E46704700
:104124004552524F523A2053797374656D2045724B
:10413400726F722048616E646C65722043616C6CAE
:104144006564210A0D0000004F4E20004F464600D2
:10415400426C696E6B2023256C75202D204C4544E0
:10416400202573202D2048414C5F476574546963B2
:104174006B28293A20256C75206D730A0D00000008
:1041840055415254205461736B20616C69766521EA
:10419400207469636B203D20256C75206D730A0DB6
:1041A400000000000A0D3D3D3D20467265655254F5
:1041B4004F53204578616D706C653A204C4544201E
:1041C4002B2055415254205461736B73203D3D3D67
:1041D4000A0D0000426C696E6B0000004552524F9C
:1041E400523A20426C696E6B5461736B206E6F742B
:1041F4002063726561746564210A0D00554152544F
:10420400000000004552524F523A20554152545436
:1042140061736B206E6F74206372656174656421D1
:104224000A0D00004552524F523A20537461636B99
:10423400206F766572666C6F7720696E2074617387
:104244006B3A2025730A0000546D7251000000007F
:10425400546D7220537663000000000001020304D1
:104264000000000000000000010203040607080922
:1042740006000000232D302B2000686C4C0065667E
:1042840067454647003031323334353637383941A3
:1042940042434445460030313233343536373839B9
:0842A4006162636465660000BD
:0842AC0064BFFF7F0100000068
:0442B40019030008E2
:0442B800F102000807
:1042BC000024F4000100000010000000AAAAAAAA21
:1042CC001400002000000000083F0020703F002078
:1042DC00D83F00200000000000000000000000009B
:1042EC0000000000000000000000000000000000C2
:1042FC0000000000000000000000000000000000B2
:10430C0000000000000000000000000000000000A1
:0C431C000000000003000000083F00202B
:040000050800033DAF
:00000001FF
