:020000040800F2
:10000000000002206D0C0008FD0C0008010D000826
:10001000050D0008090D00080D0D00080000000086
:10002000000000000000000000000000110D0008AA
:10003000150D000800000000190D00081D0D000836
:10004000BD0C0008BD0C0008BD0C0008BD0C00086C
:10005000BD0C0008BD0C0008BD0C0008BD0C00085C
:10006000BD0C0008BD0C0008BD0C0008BD0C00084C
:10007000BD0C0008BD0C0008BD0C0008BD0C00083C
:10008000BD0C0008BD0C0008BD0C0008BD0C00082C
:10009000BD0C0008BD0C0008BD0C0008BD0C00081C
:1000A000BD0C0008BD0C0008BD0C0008BD0C00080C
:1000B000BD0C0008BD0C0008BD0C0008BD0C0008FC
:1000C000BD0C0008BD0C0008BD0C0008BD0C0008EC
:1000D000BD0C0008BD0C0008BD0C0008BD0C0008DC
:1000E000BD0C0008BD0C0008BD0C0008BD0C0008CC
:1000F000BD0C0008BD0C0008BD0C0008BD0C0008BC
:10010000BD0C0008BD0C0008BD0C0008BD0C0008AB
:10011000BD0C0008BD0C0008BD0C0008BD0C00089B
:10012000BD0C0008BD0C0008BD0C0008BD0C00088B
:10013000BD0C00080000000000000000BD0C00081D
:10014000BD0C0008BD0C0008BD0C0008BD0C00086B
:10015000BD0C0008BD0C0008BD0C0008BD0C00085B
:10016000BD0C0008BD0C0008BD0C0008BD0C00084B
:10017000BD0C0008BD0C0008BD0C0008000000000C
:1001800000000000BD0C000800000000000000009E
:10019000BD0C00080000000000000000BD0C0008BD
:1001A000000000000000000000000000BD0C00087E
:1001B000BD0C0008BD0C0008BD0C0008BD0C0008FB
:0401C000BD0C00086A
:1001D00081F0004102E000BF83F0004330B54FEAF8
:1001E00041044FEA430594EA050F08BF90EA020F65
:1001F0001FBF54EA000C55EA020C7FEA645C7FEAF8
:10020000655C00F0E2804FEA5454D4EB5555B8BF1A
:100210006D420CDD2C4480EA020281EA030382EA8B
:10022000000083EA010180EA020281EA0303362D1D
:1002300088BF30BD11F0004F4FEA01314FF4801CF0
:100240004CEA113102D0404261EB410113F0004F02
:100250004FEA03334CEA133302D0524263EB4303B9
:1002600094EA050F00F0A780A4F10104D5F1200E57
:100270000DDB02FA0EFC22FA05F2801841F10001B2
:1002800003FA0EF2801843FA05F359410EE0A5F186
:1002900020050EF1200E012A03FA0EFC28BF4CF0B7
:1002A000020C43FA05F3C01851EBE37101F000456D
:1002B00007D54FF0000EDCF1000C7EEB00006EEB7A
:1002C0000101B1F5801F1BD3B1F5001F0CD3490804
:1002D0005FEA30004FEA3C0C04F101044FEA44525B
:1002E00012F5800F80F09A80BCF1004F08BF5FEAE2
:1002F000500C50F1000041EB045141EA050130BDC2
:100300005FEA4C0C404141EB0101013C28BFB1F5D3
:10031000801FE9D291F0000F04BF01460020B1FA1E
:1003200081F308BF2033A3F10B03B3F120020CDAF1
:100330000C3208DD02F1140CC2F10C0201FA0CF0CF
:1003400021FA02F10CE002F11402D8BFC2F1200C34
:1003500001FA02F120FA0CFCDCBF41EA0C019040EA
:10036000E41AA2BF01EB0451294330BD6FEA040433
:100370001F3C1CDA0C340EDC04F11404C4F120021E
:1003800020FA04F001FA02F340EA030021FA04F330
:1003900045EA030130BDC4F10C04C4F1200220FA87
:1003A00002F001FA04F340EA0300294630BD21FAC5
:1003B00004F0294630BD94F0000F83F4801306BF8B
:1003C00081F480110134013D4EE77FEA645C18BF7F
:1003D0007FEA655C29D094EA050F08BF90EA020F16
:1003E00005D054EA000C04BF1946104630BD91EA0E
:1003F000030F1EBF0021002030BD5FEA545C05D111
:100400004000494128BF41F0004130BD14F580044F
:100410003CBF01F5801130BD01F0004545F0FE41C3
:1004200041F470014FF0000030BD7FEA645C1ABFF8
:10043000194610467FEA655C1CBF0B46024650EA2F
:10044000013406BF52EA033591EA030F41F400215B
:1004500030BD00BF90F0000F04BF0021704730B5E1
:100460004FF4806404F132044FF000054FF00001B6
:1004700050E700BF90F0000F04BF0021704730B577
:100480004FF4806404F1320410F0004548BF40424C
:100490004FF000013EE700BF42004FEAE2014FEAA1
:1004A00031014FEA02701FBF12F07F4393F07F4F7C
:1004B00081F06051704732F07F4208BF704793F07F
:1004C0007F4F04BF41F40021704730B54FF4607492
:1004D00001F0004521F000411CE700BF50EA010295
:1004E00008BF704730B54FF000050AE050EA01023E
:1004F00008BF704730B511F0004502D5404261EBAE
:1005000041014FF4806404F132045FEA915C3FF4EE
:10051000D8AE4FF003025FEADC0C18BF03325FEA8B
:10052000DC0C18BF033202EBDC02C2F1200300FA3C
:1005300003FC20FA02F001FA03FE40EA0E0021FA61
:1005400002F11444BDE600BF53B94AB9002908BFFF
:1005500000281CBF4FF0FF314FF0FF3000F00CB807
:10056000ADF1080C6DE904CE02F09AFDDDF804E06F
:10057000DDE9022304B07047704700BF00000000AF
:1005800001F0FF01102A2BDB10F0070F08D010F844
:10059000013B013A8B422DD010F0070F42B3F6D148
:1005A000F0B441EA012141EA014122F007047FF061
:1005B00000070023F0E80256083C85EA010586EAB8
:1005C000010685FA47F5A3FA87F586FA47F6A5FAF4
:1005D00087F68EB9EED1F0BC01F0FF0102F0070200
:1005E00032B110F8013B013A83EA010313B1F8D1AB
:1005F0000020704701387047002D06BF354603388C
:10060000073815F0010F07D1013015F4807F02BFC4
:10061000013015F4C03F0130F0BC0138704700BF15
:10062000034613F8012B002AFBD1181A0138704732
:1006300070B54FF0FF0C4CF4E06C1CEA11541DBF78
:100640001CEA135594EA0C0F95EA0C0F00F0DEF843
:100650002C4481EA030621EA4C5123EA4C5350EA28
:10066000013518BF52EA033541F4801143F4801379
:1006700038D0A0FB02CE4FF00005E1FB02E506F00A
:100680000042E0FB03E54FF00006E1FB03569CF05F
:10069000000F18BF4EF0010EA4F1FF04B6F5007F65
:1006A00064F5407404D25FEA4E0E6D4146EB0606D7
:1006B00042EAC62141EA55514FEAC52040EA5E5060
:1006C0004FEACE2EB4F1FD0C88BFBCF5E06F1ED80A
:1006D000BEF1004F08BF5FEA500E50F1000041EB41
:1006E000045170BD06F0004646EA010140EA0200EE
:1006F00081EA0301B4EB5C04C2BFD4EB0C0541EA10
:10070000045170BD41F480114FF0000E013C00F324
:10071000AB8014F1360FDEBF002001F0004170BD48
:10072000C4F10004203C35DA0C341BDC04F1140461
:10073000C4F1200500FA05F320FA04F001FA05F2ED
:1007400040EA020001F0004221F0004110EBD370BA
:1007500021FA04F642EB06015EEA430E08BF20EAE6
:10076000D37070BDC4F10C04C4F1200500FA04F389
:1007700020FA05F001FA04F240EA020001F000411B
:1007800010EBD37041F100015EEA430E08BF20EA8E
:10079000D37070BDC4F1200500FA05F24EEA020ED6
:1007A00020FA04F301FA05F243EA020321FA04F005
:1007B00001F0004121FA04F220EA020000EBD370BC
:1007C0005EEA430E08BF20EAD37070BD94F0000FBC
:1007D0000FD101F00046400041EB010111F4801FF0
:1007E00008BF013CF7D041EA060195F0000F18BFA1
:1007F000704703F00046520043EB030313F4801FDD
:1008000008BF013DF7D043EA0603704794EA0C0F96
:100810000CEA135518BF95EA0C0F0CD050EA4106AC
:1008200018BF52EA4306D1D181EA030101F0004129
:100830004FF0000070BD50EA410606BF1046194651
:1008400052EA430619D094EA0C0F02D150EA01365D
:1008500013D195EA0C0F05D152EA03361CBF10469E
:1008600019460AD181EA030101F0004141F0FE413D
:1008700041F470014FF0000070BD41F0FE4141F4C1
:10088000780170BD70B54FF0FF0C4CF4E06C1CEAC1
:1008900011541DBF1CEA135594EA0C0F95EA0C0F76
:1008A00000F0A7F8A4EB050481EA030E52EA033531
:1008B0004FEA013100F088804FEA03334FF0805552
:1008C00045EA131343EA12634FEA022245EA11157F
:1008D00045EA10654FEA00260EF000419D4208BF30
:1008E000964244F1FD0404F5407402D25B084FEADD
:1008F0003202B61A65EB03055B084FEA32024FF489
:1009000080104FF4002CB6EB020E75EB030E22BFE5
:10091000B61A754640EA0C005B084FEA3202B6EBA5
:10092000020E75EB030E22BFB61A754640EA5C0054
:100930005B084FEA3202B6EB020E75EB030E22BFE4
:10094000B61A754640EA9C005B084FEA3202B6EBE5
:10095000020E75EB030E22BFB61A754640EADC00A4
:1009600055EA060E18D04FEA051545EA16754FEA06
:1009700006164FEAC30343EA52734FEAC2025FEA24
:100980001C1CC0D111F4801F0BD141EA00014FF0B3
:1009900000004FF0004CB6E711F4801F04BF014384
:1009A0000020B4F1FD0C88BFBCF5E06F3FF6AFAEA0
:1009B000B5EB030C04BFB6EB020C5FEA500C50F130
:1009C000000041EB045170BD0EF0004E4EEA1131B3
:1009D00014EB5C04C2BFD4EB0C0541EA045170BDBA
:1009E00041F480114FF0000E013C90E645EA060EFE
:1009F0008DE60CEA135594EA0C0F08BF95EA0C0F2C
:100A00003FF43BAF94EA0C0F0AD150EA01347FF473
:100A100034AF95EA0C0F7FF425AF104619462CE74A
:100A200095EA0C0F06D152EA03353FF4FDAE1046AD
:100A3000194622E750EA410618BF52EA43067FF4FE
:100A4000C5AE50EA41047FF40DAF52EA43057FF48E
:100A5000EBAE12E74FF0FF3C06E000BF4FF0010C99
:100A600002E000BF4FF0010C4DF804CD4FEA410CFD
:100A70007FEA6C5C4FEA430C18BF7FEA6C5C1BD0CA
:100A800001B050EA410C0CBF52EA430C91EA030F4B
:100A900002BF90EA020F0020704710F1000F91EAA8
:100AA000030F58BF994208BF90422CBFD8176FEA76
:100AB000E37040F0010070474FEA410C7FEA6C5C44
:100AC00002D150EA013C07D14FEA430C7FEA6C5C4B
:100AD000D6D152EA033CD3D05DF8040B704700BF77
:100AE0008446104662468C461946634600E000BFC5
:100AF00001B5FFF7B7FF002848BF10F1000F01BD97
:100B00004DF808EDFFF7F4FF0CBF012000205DF861
:100B100008FB00BF4DF808EDFFF7EAFF34BF0120E6
:100B200000205DF808FB00BF4DF808EDFFF7E0FF7F
:100B300094BF012000205DF808FB00BF4DF808EDD0
:100B4000FFF7CEFF94BF012000205DF808FB00BF37
:100B50004DF808EDFFF7C4FF34BF012000205DF819
:100B600008FB00BF4FEA410C7FEA6C5C02D150EAFF
:100B7000013C0AD14FEA430C7FEA6C5C02D152EA95
:100B8000033C02D14FF0000070474FF00100704766
:100B90004FEA410212F5001215D211D56FF47873A5
:100BA000B3EB625212D94FEAC12343F0004343EA48
:100BB000505311F0004F23FA02F018BF4042704723
:100BC0004FF00000704750EA013005D111F00040AD
:100BD00008BF6FF0004070474FF00000704700BF43
:100BE0000348044B834202D0034B03B118477047BC
:100BF000D4010020D4010020000000000548064B6D
:100C00001B1AD90F01EBA301491002D0034B03B10A
:100C100018477047D4010020D401002000000000D4
:100C200010B5064C237843B9FFF7DAFF044B13B134
:100C30000448AFF300800123237010BDD8010020C9
:100C400000000000105D000808B5054B1BB1054908
:100C50000548AFF30080BDE80840FFF7CFBF00BFF5
:100C600000000000DC010020105D0008DFF834D037
:100C70000D480E490E4A002302E0D458C4500433F4
:100C8000C4188C42F9D30B4A0B4C002301E01360CB
:100C90000432A242FBD300F043F802F065FB00F0FF
:100CA0000FF870470000022000000020D40100204F
:100CB0002C670008D801002090030020FEE7000008
:100CC00008B500F0ADFC00F0DDFB00F02BFC0748A0
:100CD00002F038FE064802F035FE064802F032FE09
:100CE00000F084F8044802F02DFEFEE7385D0008AD
:100CF0006C5D0008945D0008C45D0008704700BF8B
:100D0000FEE700BFFEE700BFFEE700BFFEE700BF53
:100D1000704700BF704700BF704700BF00F09ABC2B
:100D2000034AD2F8883043F47003C2F88830704721
:100D300000ED00E00120704708B502F00FFB16231C
:100D400003604FF0FF3008BD08B502F007FB162323
:100D50000360FEE770B5161E07DD0C468D19AFF374
:100D6000008004F8010BA542F9D1304670BD00BFE8
:100D700070B5161E07DD0C468D1914F8010B00F036
:100D800069FBA542F9D1304670BD00BF4FF0FF307E
:100D9000704700BF4FF400534B600020704700BF06
:100DA00001207047002070470C490D4A0B6810B5B0
:100DB0000C4C121B2BB11844904207D808601846FF
:100DC00010BD094B0B6018449042F7D902F0C6FAE7
:100DD0000C2303604FF0FF33184610BDF4010020D0
:100DE0000000022000040000900300202DE9F04FD5
:100DF0002DED028BC7489FEDC88AB1B002F0A2FD6D
:100E0000C64802F09FFDC64802F09CFDC34802F0B0
:100E100099FDC04802F096FDC24802F093FDC24918
:100E2000C24802F08FFDBF4802F08CFD16AD4FF0B6
:100E300080430026BE4A18936FF07F0A7F234FF04D
:100E400001084FF00209CDE92DA316964FF4015386
:100E500012926E60202240214FF0000A4FF0000BEA
:100E6000B4482A96CDE914ABCDE91968CDE92B66D3
:100E7000ADF83C60ADF83830CDE91B88CDE91D995F
:100E8000CDE91F98CDE92188CDE92388CDE92598C2
:100E9000CDE92788CDF8A49002F054FD9DF94B30A0
:100EA0009DF949209DF948100093A3489DF94A30C7
:100EB00002F048FDDDE91812A04802F043FD0FAB37
:100EC000069322AB03931EAB14AF0DF1480A0193B6
:100ED00018AC0EAB0DF1980B22462AA90093CDF861
:100EE00014B01AAB0497CDF808A0284602F09CF87D
:100EF0000C90934803F0C0F80C9B924A9249934897
:100F0000B34208BF114602F01DFD9DF93D209DF939
:100F10003C108F4802F016FD9DF93C3007EE903AE8
:100F2000F8EEE77AC7EE887A17EE900AFFF7B4FA80
:100F300002460B46CDE90C239DF93D3007EE903A71
:100F4000F8EEE77AC7EE887A17EE900AFFF7A4FA70
:100F5000DDE90C23CDE900017E4802F0F3FC6FF0DF
:100F60007F037F22CDE90732199B0A963246CDE9ED
:100F70000166ADF84060049310AE189B0393514690
:100F80003B46CDE90599CDF824800EA8009601F0E6
:100F900045F99DF9412070489DF9401002F0D2FCBE
:100FA0009DF93C209DF940309A4206D19DF93D20A3
:100FB0009DF941309A4200F00482684802F0C2FC78
:100FC000584802F0BFFC6649584802F0BBFC55483F
:100FD00002F0B8FC0123634A1C93CDE91A33CDE932
:100FE0002033CDE92233CDE92633249328930223FD
:100FF00092E80300CDE91D331F9325932993002325
:1010000016932C936B60ADF84030574B12936FF0F2
:101010007F0E7F234FF00A084FF00509CDE92DE33D
:1010200084E80300CDE92A8941F614631E221421C5
:101030004FF000583F48ADF83C304FF0FF39CDE954
:10104000148902F07FFC9DF94B309DF949209DF9F0
:101050004810009338489DF94A3002F073FCDDE9EE
:101060002A12424802F06EFC199A189940489212CE
:10107000891202F067FCDDE91412304802F062FCCC
:1010800022ABCDE902A31EAB01930FAB3A462AA9CE
:101090000093CDE905B61AAB0494284601F0C4FFCD
:1010A0008046344802F0E8FF264B27492748B8F12C
:1010B000000F08BF194602F045FC25489DF9412064
:1010C0009DF9401002F03EFC9DF9403023B19DF99E
:1010D0004130002B40F07181274802F033FC114869
:1010E0009FED0D8A02F02EFC2449104802F02AFCE4
:1010F0000C4802F027FC01230022CDE91A33CDE988
:101100002033CDE92233CDE926331C932493289351
:1011100036E000BF306100080000FE42045E0008B7
:10112000345E0008605E0008905E0008B05E000853
:1011300040202040B85E0008CC5E0008E85E000851
:101140000C5F0008F45D0008FC5D0008305F0008DB
:10115000405F0008545F0008705F0008D45F00081B
:1011600004600008285D00080A140F1924600008B4
:101170005060000864600008A4600008CC600008AB
:101180004FF0006802236FF002097F21CDE9148936
:101190001892CDE91D3362601F93259329934FF078
:1011A00000088A4B8A48ADF840204FF00009CDE98D
:1011B0001689CDE92A22CDE92C222E91ADF83C10DA
:1011C000129302F0BFFB9DF94B309DF949209DF928
:1011D000481000937F489DF94A3002F0B3FB7E48E7
:1011E00002F04AFFDDE914127C4802F0ABFB22ABAF
:1011F000CDE902A31EAB01930FAB3A462AA9049591
:101200000093CDE905B61AAB204601F00DFF8046EC
:10121000734802F031FF734B73497448B8F1000F03
:1012200008BF194602F08EFB9DF941209DF9401040
:101230006F4802F087FB9DF9403007EE903AF8EED8
:10124000E77AC7EE887A17EE900AFFF725F99DF93D
:10125000413007EE903AF8EEE77A8046C7EE887A9A
:10126000894617EE900AFFF717F94246CDE90001CB
:101270004B46604802F066FB9DF841209DF84030E7
:101280001343180654BF5C485C4802F05BFB5C48A3
:1012900002F058FB5B495C4802F054FB584802F0EE
:1012A00051FB5A4A012392E80300CDE91B33CDE9F3
:1012B0002033CDE92233CDE9273324930223CDE92E
:1012C0001D331F932593299304231A932693504B80
:1012D0000F9385E803007F236FF07F014FF0000834
:1012E000CDE92D134FF000524FF0FF33CDE910231D
:1012F000CDF8508000230022CDF860804548C7F823
:101300000480C4F80480CDE91223CDE92A88CDF801
:10131000B08002F0B1FE404802F0AEFEDDE91012EE
:101320002E4802F00FFB22AB03930FAB02931EABD0
:10133000CDE9005332461AAB2AA9CDE904AB069495
:10134000384601F071FE3548354D02F095FE94F9AE
:10135000013014F9022B4146284608F1010802F039
:10136000F1FAB8F1040FF2D12E4802F0EBFA2E4850
:1013700002F0E8FA2D4802F0E5FA2D4802F0E2FA10
:101380002A4802F0DFFA284802F0DCFA294802F085
:10139000D9FA294802F0D6FA284802F0D3FA2848A8
:1013A00002F0D0FA274802F0CDFA274831B0BDEC60
:1013B000028BBDE8F04F02F0C5BA244802F0C2FA31
:1013C0008DE6234802F0BEFAFAE500BF40C0404077
:1013D000B85E0008CC5E0008EC600008E85E00081B
:1013E00064600008F45D0008FC5D0008305F0008E0
:1013F000405F0008545F000808610008346100087D
:10140000605E000860610008B05E0008305D0008A2
:10141000402020407C61000894610008C061000801
:10142000D4610008EC61000830610008045E000827
:101430001C620008406200084C62000878620008E4
:10144000A4620008C8620008F46200087460000822
:101450009C5F000800B583B04FF6FF730190012236
:1014600001A9034800F030FE019803B05DF804FBC9
:10147000F801002008B5024802F064FAFEE700BF58
:101480002463000830B597B0002323490193086C0A
:10149000224A40F080500864096C01F080510191AB
:1014A00001990293116841F44041116012681021C2
:1014B000012002F44042022402920B900C9102207F
:1014C00010910721CDE90E43CDE91201029A08944B
:1014D0004FF4B472062308A81192149300F0E0F9B7
:1014E000C0B900F05FFE034600B1FEE70F21CDE971
:1014F00003144FF4A0554FF48052052103A8CDE901
:101500000535079200F0B8F820B9054802F01AFA3C
:1015100017B030BDFFF7AEFF00380240007000404A
:101520004C63000830B589B0254B002400941A6B39
:1015300042F001021A631A6B02F001020092009A53
:1015400001941A6B42F001021A631A6B02F0010255
:101550000192019A02941A6C42F400321A641B6CD4
:10156000042103F400330122029303910221CDE907
:101570000412032302981348072503A9CDE9063571
:1015800000F0FAFB08230F48039303A9079500F026
:10159000F3FB0D480D494FF416520C23C0E900121D
:1015A000C0E90244C0E90443C0E9064400F05AFD22
:1015B00020B9074802F0C6F909B030BDFFF75AFF5D
:1015C0000038024000000240F801002000440040C2
:1015D00070630008704700BF38B50E4A0E4B127892
:1015E000054618684FF47A73B3FBF2F3B0FBF3F0DF
:1015F00000F0A8FB08B90F2D01D9012038BD044621
:10160000024629464FF0FF3000F060FB034B2046B6
:101610001D6038BD040000200000002008000020EC
:1016200008B50B4B1A6842F400721A601A6842F44B
:1016300080621A601A6842F480721A60032000F017
:1016400033FB0F20FFF7C8FFFFF7C4FF002008BDE2
:10165000003C0240034A044B11681B780B441360A2
:10166000704700BF4002002004000020014B1868B2
:10167000704700BF40020020002800F08780484AE1
:10168000136803F00F038B422DE9F0410D46044629
:1016900009D2CBB21370136803F00F038B4202D050
:1016A0000120BDE8F0812368980714D5590704D5B7
:1016B0003C498A6842F4E0528A601A0704D53949E5
:1016C0008A6842F460428A603649A0688A6822F0DB
:1016D000F00202438A60DF0721D56268012A57D0F1
:1016E000931E012B2F4B1B684DD99907D8D52D4E32
:1016F000B36823F003031343B360FFF7B7FF41F26E
:101700008838074604E0FFF7B1FFC01B404544D8C6
:10171000B368626803F00C03B3EB820FF3D1204A85
:10172000136803F00F03AB4206D9EBB213701368D2
:1017300003F00F03AB42B3D123685A0706D519490A
:10174000E0688A6822F4E05202438A601B0707D5EA
:10175000144A2169936823F4604343EAC103936008
:1017600000F048F80F4A104C92681049C2F3031277
:101770000346A25C0E48D34000680B60FFF72CFFC5
:101780000020BDE8F0819801B1D489E701207047BD
:10179000044B1B689E03AAD482E7032081E700BFA5
:1017A000003C02400038024098630008000000201E
:1017B00008000020044B05499B68054A0868C3F3EC
:1017C0008223D35CD84070470038024000000020DC
:1017D00090630008044B05499B68054A0868C3F3F9
:1017E0004233D35CD84070470038024000000020EC
:1017F00090630008274908B58B6803F00C03082B99
:101800001DD00C2B05D0244A2448042B18BF1046A9
:1018100008BD4A684B68496813F4800302F03F0230
:101820002ED11D48C1F38811A1FB0001FEF78CFEEB
:10183000184B5B68C3F30273B0FBF3F008BD4A6852
:101840004B68496813F4800302F03F020FD112483D
:10185000C1F38811A1FB0001FEF776FE0D4B5B681A
:10186000C3F3014301335B00B0FBF3F008BD0B4849
:10187000C1F388110023A1FB0001FEF765FEEDE72F
:101880000648C1F388110023A1FB0001FEF75CFEAE
:10189000CEE700BF003802400024F40000127A00B6
:1018A000002800F0FB812DE9F0410368DE0782B0DB
:1018B000044636D5A1498A6802F00C02042A00F0D9
:1018C000DE808A6802F00C02082A00F0D4809B496E
:1018D0008A6802F00C020C2A00F004816368B3F5F8
:1018E000803F00F01881B3F5A02F00F09281934D56
:1018F0002A6822F480322A602A6822F480222A6030
:10190000002B40F00D81FFF7B1FE064605E0FFF722
:10191000ADFE801B642800F2FA802B689F03F6D48A
:1019200023689D072FD5854A916811F00C0F00F0B0
:101930009980916801F00C01082900F08F807F499F
:101940008A6802F00C020C2A00F05E81E368002B2A
:1019500000F012817A4B794E01221A60FFF786FE61
:10196000054605E0FFF782FE401B022800F2CF800B
:1019700033689F07F6D53368226923F0F80343EAFA
:10198000C203336023681A0752D45D0730D56B4A0F
:10199000136C13F0805300F099800025694E336872
:1019A000D80540F1A480A368012B00F0CD80052B61
:1019B00000F03981614E326F22F001023267326FDE
:1019C00022F004023267002B40F0C380FFF74EFE86
:1019D00041F28838074605E0FFF748FEC01B404546
:1019E00000F29580336F9B07F6D4002D40F00681FE
:1019F000A369CBB1514DAA6802F00C02082A00F08D
:101A0000CC80022B4E4B4FF000021A6600F015817D
:101A1000FFF72CFE044604E0FFF728FE001B022817
:101A200075D82B689B01F7D4002002B0BDE8F08187
:101A30006369002B2DD0424B404E0122C3F8802E0B
:101A4000FFF714FE054604E0FFF710FE401B0228D6
:101A50005DD8736F9B07F7D5236896E752685002ED
:101A60003FF56DAF354A1268920723D5E268012A27
:101A700020D00120D9E74A6855027FF528AF2F4AC8
:101A8000126892037FF54DAF6268002A7FF449AF78
:101A9000EFE72B4A294EC2F8803EFFF7E7FD0546E7
:101AA00004E0FFF7E3FD401B022830D8736F9F0767
:101AB000F7D4D1E7214920690A6822F0F80242EA06
:101AC000C0020A601A077FF560AFB1E70193136C9B
:101AD00043F080531364136C03F080530193019B14
:101AE00001255BE74A6851027FF5F8AEC7E7336826
:101AF00043F480733360FFF7B9FD07463368D905B7
:101B00003FF551AFFFF7B2FDC01B0228F6D9032005
:101B100002B0BDE8F081094A136843F480331360D2
:101B2000FFF7A4FD054E054604E0FFF79FFD401BAF
:101B30006428ECD833689B03F7D5F1E600380240FF
:101B40000000474200700040554A136F43F0010304
:101B50001367FFF78BFD524F064641F2883804E0C9
:101B6000FFF784FD801B4045D1D83B6F9A07F7D51E
:101B7000002D3FF43DAF41E04A4A494E1360FFF764
:101B800075FD054604E0FFF771FD401B0228BED835
:101B900033689907F7D42368F5E6012B3FF469AF62
:101BA0006B68E26903F4800191427FF462AF226ABC
:101BB00003F03F0191427FF45CAF616A47F6C07267
:101BC0001A40B2EB811F7FF454AFA26A520803F4AB
:101BD0004031013AB1EB024F7FF44BAFE16A03F0C1
:101BE0007062B2EB016F7FF444AF226B03F0E0430D
:101BF000B3EB027F14BF0120002016E7284A136CC4
:101C000023F080531364F3E64A6851023FF59EAE19
:101C100028E7234B1A6842F480221A601A6842F4BB
:101C200080321A607CE71E4B1A6F42F004021A677A
:101C30001A6F42F001021A678BE7FFF717FD06469D
:101C400005E0FFF713FD801B02283FF660AF2B680D
:101C50009901F6D4D4E90731626A0B4343EA82134F
:101C6000D4E90A20216B43EA0063520843EA017376
:101C7000013A0C4943EA024301226B600A66FFF70E
:101C8000F5FC074D044605E0FFF7F0FC001B0228B9
:101C90003FF63DAF2B689A01F6D5C5E601207047A7
:101CA00000380240000047420749CA6803024FF665
:101CB000FF0003F4E0630240134343F0BF6343F4C7
:101CC0000033CB60704700BF00ED00E01B4BDB68CA
:101CD000C3F3022300B5C3F1070EBEF1040F03F1F5
:101CE000040C28BF4FF0040EBCF1060F1CD9A3F161
:101CF000030C4FF0FF3303FA0CF322EA03024FF018
:101D0000FF3303FA0EF321EA030303FA0CF3134340
:101D10001B010028DBB20ADB00F1604000F56140E6
:101D200080F800335DF804FB00229446E7E7044A9C
:101D300000F00F00024413765DF804FB00ED00E0B4
:101D4000FCEC00E00138B0F1807F01D30120704746
:101D500010B44FF0E023074C58614FF0F00C84F8BA
:101D600023C00022072110469A615DF8044B1961D7
:101D7000704700BF00ED00E02DE9F04F00230C6834
:101D8000DFF8FCA185B04FF0010B894603E0013379
:101D9000102B00F08C800BFA03F202EA0408A24335
:101DA000F5D1D9F8041001F0030C5A0003250CF109
:101DB000FF369540012E6FEA05057BD9BCF1030F74
:101DC00040F0CE8006680CFA02F235402A4311F446
:101DD000403F0260DBD000220392DAF8442042F454
:101DE0008042CAF84420DAF8442002F48042039288
:101DF000039A23F0030202F1804203F003060F2747
:101E000002F59C32B60007FA06FC5A4F9568B842B4
:101E100025EA0C0522D007F58067B84200F08280E1
:101E2000554FB84200F08480DFF858C1604500F09B
:101E30008580DFF854C1604500F08680DFF84CC132
:101E4000604500F08780DFF848C160450CBF4FF067
:101E5000060C4FF0070C0CFA06F635439560474A1E
:101E60009268CE026FEA0805444E54BF2A4048EA01
:101E70000202B260F268414E8F0254BF2A4048EA23
:101E80000202F26072688E033C4E54BF2A4048EA58
:101E9000020272603268C90303F10103374954BF7B
:101EA0002A4048EA0202102B0A607FF474AF05B0A2
:101EB000BDE8F08F866806EA050ED9F80C609640FA
:101EC00046EA0E068660466826EA080EC1F300164A
:101ED0009E4046EA0E064660C66806EA050ED9F838
:101EE0000860964046EA0E06BCF1020FC6607FF419
:101EF00069AFDE0800EB86060196376AD9F81060F4
:101F0000009703F0070E4FEA8E0E0F2706FA0EF623
:101F100007FA0EFE009F27EA0E0E019F46EA0E0604
:101F20003E624FE74FF0010C0CFA06F6354395E799
:101F30004FF0020C0CFA06F635438FE74FF0030C16
:101F40000CFA06F6354389E74FF0040C0CFA06F656
:101F5000354383E74FF0050C0CFA06F635437DE771
:101F6000C66806EA050ED9F80860964046EA0E06ED
:101F7000C66027E70000024000080240003C014024
:101F800000380240000C02400010024000140240E1
:101F9000001802400268116938B50446C068A36899
:101FA00021F4405101432069116103436069D16804
:101FB0000343E06921F4164121F00C0103430B4374
:101FC000D3605369A069234923F4407303438A42D1
:101FD000536105D0204B9A4202D0FFF7EBFB01E0A2
:101FE000FFF7F8FBE2691921B2F5004FD4E900537D
:101FF000A0FB010113D09A009B0FFEF7A5FA174A28
:10200000A2FB00135B09642101FB130000013230C5
:10201000A2FB00201B0103EB5013AB6038BDDA18A4
:102020004FF000035B41FEF78FFA0C4AA2FB003130
:102030004909642303FB1103DB003233A2FB0323B2
:10204000C3F342121B0902EB011203F4F8731344A9
:10205000AB6038BD00100140001401401F85EB51FA
:10206000704700BF70B310B590F84130044603F0DC
:10207000FF0213B32268242384F84130D36823F489
:1020800000532046D360FFF785FF2368196921F4C8
:1020900090411961596921F02A015961D9680022DA
:1020A0004FF0200C41F40051D960626484F841C0C3
:1020B00084F842C01046626310BD80F84020FFF7EC
:1020C000CFFFD7E7012070472DE9F843044690F889
:1020D000410020284ED1884609B1164612B9012088
:1020E000BDE8F8831F464FF000092123C4F844904F
:1020F00084F84130FFF7BAFAA368A684B3F5805F8D
:102100000546E68439D0E28C236892B2AAB11A68F7
:10211000160604D4791C1ED11A681206FCD5B8F133
:10212000000F21D018F8012B5A60E28C013A92B2CC
:10213000E284E28C92B2002AE9D11A68520604D4F1
:10214000781C20D11A685106FCD5202384F8413030
:102150000020BDE8F883FFF789FA401B87421BD3B4
:10216000D7B12368DA68D2E739F8022BC2F3080244
:102170005A60DAE70220BDE8F8832369002BC2D158
:10218000C1469846BFE7FFF771FA431B9F4203D34E
:1021900017B12368DA68D0E7202384F841300320A0
:1021A000BDE8F88330B583B0194B1A491A4D0022A7
:1021B00001921A6C42F080521A641B6C03F0805337
:1021C00001930122019B0A64FFF750FA044605E0DF
:1021D000FFF74CFA001BB0F57A7F16D86B68DA036C
:1021E000F6D50C4B0C4D01225A64FFF73FFA04461A
:1021F00005E0FFF73BFA001BB0F57A7F05D86B6866
:102200009B03F6D5002003B030BD032003B030BDE2
:102210000038024000000E42007000402DE9F04FEF
:1022200095B00E46249C1F990193289A029004EBC6
:10223000D4735810DDF87880DDF888A004900DB2D2
:10224000002A00F0F784C5EA0545012C10B2C0EA67
:10225000004B40F30782CAF1000323EAE371012235
:102260008A40501E4310239F089301330993279BF4
:102270000B91002F4FF00001B8BF03370790069174
:1022800023982494590027F00302029B0D91BF105C
:1022900023990E97019C0F92470013442AEAEA7093
:1022A0000597B7188A1ACDF888A0DDF87C900A90B7
:1022B00003971293119231461396CDF87880C24657
:1022C000002C00F0C081636854F8082B0194239E11
:1022D000059F88190E9ECC190C94002E00F08F8655
:1022E0000096771E16F00306029C5AD0012E3AD0B3
:1022F000022E1BD0029C54F8048B25FA98FC25FA78
:1023000088F651F804EB2BFA9EF82BFA8EFE28FB88
:102310000C222EFB062250F804EB2BFA9EF82BFA27
:102320008EFE28FB0C332EFB0633009754F8047BFB
:1023300025FA97FC25FA87F651F8048B2BFA98FEBC
:102340002BFA88F72EFB0C2227FB062250F8048B71
:102350002BFA98FE2BFA88F72EFB0C3327FB06335B
:10236000009E771E009754F804CB25FA9CF851F88C
:10237000047B25FA8CF62BFA97FE2BFA87FC2EFBB2
:1023800008222CFB062250F8047B2BFA97FE2BFA2E
:1023900087FC2EFB083E2CFB06E3009E771E009771
:1023A00074D0CDF840A0CDF87C90A04658F8046BCE
:1023B00025FA96FA8E4625FA86F75EF8049B2BFAE4
:1023C00099FC2BFA89F62CFB0A2226FB0726844669
:1023D0005CF8042B2BFA92F92BFA82F229FB0A33D0
:1023E00022FB0732676825FA97F94B6825FA87F7C9
:1023F0002BFA93FA2BFA83F32AFB096623FB076374
:10240000D0F804A02BFA9AF62BFA8AFA26FB0922B6
:102410002AFB0729D8F8047025FA97F6DEF804801D
:1024200025FA87FA2BFA98F22BFA88F722FB063363
:1024300027FB0A38DCF804E02BFA9EF72BFA8EFC17
:1024400027FB06992CFB0A96E268103425FA92FACB
:10245000CB6825FA82F710312BFA93FE2BFA83FC16
:102460002EFB0A822CFB0722C36810302BFA93FE46
:102470002BFA83F82EFB0A6928FB0793009E371F6F
:10248000009792D1DDF840A0DDF87C900399239865
:10249000129E0818239C0F9FBC427CDD119C14F0F7
:1024A000030706EB040C31D0012F1FD0022F0ED0F2
:1024B00016F901EB289C11F9017B0EEB090810F9C4
:1024C00001EB2744A64408FB072208FB0E3316F94C
:1024D000018B289C11F9017B08EB090E10F9018B87
:1024E0002744A0440EFB07220EFB083316F901EB2C
:1024F000289C11F9017B10F9018BCE442744A0449C
:1025000066450EFB07220EFB083344D00095289D3C
:10251000CDF840B03746884617F901BB18F9014B92
:1025200097F9017098F901808646CB442C440BFB47
:1025300004221EF9014B2C440BFB043396F9014095
:1025400091F901B09EF901E04C44AB444F4404FBC7
:102550000B22A84407FB082B90F9018091F9032076
:10256000A84404FB0833AE4407FB0E3496F903700D
:102570002A444F4407FB02B290F903B00436AB443F
:10258000664501F1040100F1040007FB0B43C1D1D2
:10259000009DDDF840B00A99219C8A404FF08046AA
:1025A0000020C2FB0460DDE908C8F70F0B990A9C04
:1025B00047EA4002079852FA01F658BFE046024047
:1025C00021990B98424503FA04F34FF080474FF0EE
:1025D0000002C3FB0172DDE908C84FEAD77343EA82
:1025E0004207079C209A259BC8BF013657FA00F185
:1025F00058BFE046274047451644C8BF0131114443
:102600009E42269F0698039C049AB8BF1E46994294
:10261000B8BF1946BE42A8BF3E468AF80060B9421C
:10262000279E059BA8BF39460AF8061001300D9970
:1026300006901C4490428A44039407DA019C0C994A
:10264000002C7FF440AE019A134640E60498139F95
:10265000DDF87890DDF888A0249C00FB03760D9BC4
:1026600000FB0398E20740F1E182019C002C00F09E
:10267000C9842368239A002AB8BF0332971008BF81
:102680003A4600F0958017F00302DDF808C03146A5
:10269000BE4607F1FF343CD0012A27D0022A13D0CE
:1026A000DDF808C05CF8041B25FA91F925FA81FED3
:1026B000314651F8042B2BFA92F02BFA82F220FBD0
:1026C000093322FB0E33A6465CF8044B25FA94F935
:1026D00025FA84F051F8042B2BFA92F42BFA82F2AB
:1026E00024FB093322FB00330EF1FF3E5CF8040BA0
:1026F00025FA90F951F8042B25FA80F02BFA92F480
:102700002BFA82F224FB093322FB0033BEF1010EC7
:1027100047D0CDE90076674657F8046B25FA96F95D
:1027200025FA86F00E4656F8042B2BFA92F42BFA73
:1027300082F224FB093322FB0033DCF8040025FA83
:1027400090F925FA80F448682BFA90F22BFA80F081
:1027500022FB093320FB04397C6825FA94F776685C
:1027600025FA84F32BFA96F22BFA86F022FB0794D3
:1027700020FB0347DCF80C300CF1100C25FA93F920
:10278000CA6825FA83F610312BFA92F02BFA82F4FC
:1027900020FB097724FB0673BEF1040EBBD1DDE9F3
:1027A0000076029D05EB8701029106EB8706BA00D1
:1027B0002398904240F3A780871A029C17F00705E0
:1027C0003C4456D0012D46D0022D38D0032D2AD0BE
:1027D000042D1CD0052D0ED0062D40F01684029F2E
:1027E0001F9D17F9019B16F9012B28990297A944FF
:1027F0000A4409FB023302981F9F10F901BB16F926
:1028000001CB289D0290BB44AC440BFB0C33029AD5
:102810001F9912F9019B16F901BB2898029289446D
:10282000834409FB0B33029F1F9D17F901CB16F957
:10283000012B28990297AC440A440CFB02330298FE
:102840001F9F10F9019B16F901BB289D0290B94406
:10285000AB4409FB0B3302981F9A10F901CB16F910
:10286000011B289F029094443944A0420CFB013381
:1028700049D0029A1F9928989146B34619F901EB5D
:102880001BF901CB99F9017096F901909BF9015060
:102890008E4484440EFB0C3392F901E081448E4453
:1028A0000EFB093B0F44054407FB05BC92F903707E
:1028B00096F9035092F9049096F904B00F44054438
:1028C00007FB05C392F9057096F9055089448344C6
:1028D00009FB0B3C0F4492F9069096F906B00544AB
:1028E00007FB05C392F9077096F9075089448344A2
:1028F000083209FB0B3C0F440544A24206F10806CE
:1029000007FB05C3B8D12AEAEA7665E1049BDDF846
:102910002C90129EDDF878C0009FDDF888A0249CE2
:1029200003FB076603FB09C8E30740F17F810199B8
:1029300009B108682890239D002DB8BF0335AF105A
:1029400008BF3D4600F0968017F003050299324615
:10295000BE4607F1FF3940D0012D29D0022D13D0FA
:10296000029951F8044B2BFA94F52BFA84F452F89F
:1029700004EB2FFA9EFC2FFA8EFE289B2CFB0530D1
:102980002EFB04052895CE4651F8044B2BFA94F9FA
:102990002BFA84F052F804CB2FFA9CF52FFA8CFC1A
:1029A000289B25FB09342CFB004028900EF1FF3EAC
:1029B00051F8043B2BFA93F952F8040B2BFA83F5E8
:1029C0002FFA90F4289B2FFA80F024FB093C20FB7F
:1029D00005C5BEF1010E289545D0289B00978C4671
:1029E0005CF8047B2BFA97F92BFA87F4174657F813
:1029F000040B2FFA90F52FFA80F025FB093320FB0A
:102A000004334C682BFA94F92BFA84F554682FFAA6
:102A100094F02FFA84F420FB093324FB0539DCF809
:102A200004002BFA90FC7D682BFA80F42FFA95F7BE
:102A30002FFA85F327FB0C9923FB0490CD68103106
:102A40002BFA95FCD7682BFA85F410322FFA97F9F8
:102A50002FFA87F329FB0C0023FB0403BEF1040EBD
:102A6000BDD1009F2893029901EB870206EB8706F0
:102A70000292BD00239CAC4240F3AB80671B0298DE
:102A800017F00703384461D0012B51D0022B43D0FB
:102A9000032B35D0042B27D0052B19D0062B0BD0B8
:102AA00002991F9A11F901BB289C16F9015B02914A
:102AB00093440BFB0547289702991F9B11F901CB03
:102AC000289A16F9019B02919C440CFB0925289534
:102AD000029C1F9F14F901BB289916F9013B02942F
:102AE000BB440BFB03122892029D1F9C15F901CBDE
:102AF000289B16F9017B0295A4440CFB0731289111
:102B0000029A1F9D12F9019B289F16F9014B029210
:102B1000A94409FB0473289302991F9A11F901BB78
:102B2000289C16F9015B029193440BFB05472897FB
:102B300002991F9B11F901CB289A16F9019B02916A
:102B40009C440CFB09258142289542D0029A1F998A
:102B5000289B9346B1461BF9017B19F9015B9BF950
:102B6000014099F901B092F901900F4407FB053338
:102B700096F90170894409FB07350C4404FB0B5C92
:102B800092F9034096F9033092F904B096F9049053
:102B900096F905500C4404FB03C792F905408B4499
:102BA0000BFB097C0C4492F9067092F9079004FB28
:102BB00005C396F9064096F907C00F44083207FB93
:102BC000043B8944824209FB0CB306F10806C0D1DC
:102BD0002893289B2AEAEA76219803FA06F6CAF196
:102BE00000044FF080424FF0000AC6FB002A24EA9E
:102BF000E4710125D30F8D4043EA4A076E1E57FA50
:102C000001F14FEA660207EA060448BF0132209844
:102C1000259B269F9442C8BF013101449942B8BF09
:102C20001946B942A8BF394688F80010002015B0EF
:102C3000BDE8F08F012CC5EA054B7FF775AECAF1F0
:102C40000000239F249420EAE07101258D40681E36
:102C5000002F239D0991B8BF033727F003024310CB
:102C6000BF100021059068000C970391279F0299DF
:102C7000009023980693019C0D92013311444FEA72
:102C8000470CB5180793821A2AEAEA731191CDF816
:102C90002CC0CDF888A0DDF87CC008931092C14606
:102CA00031461296CDF87880AA46002C00F0A48117
:102CB000636854F8082B0194009F239E029CCD1951
:102CC0000A950C9D8819002D00F0D4802E466F1EA9
:102CD00015F0030556D0012D38D0022D1BD0029CD3
:102CE00054F8046B2BFA96F82BFA86F551F8046B1E
:102CF0002FFA96FE2FFA86F62EFB082226FB0522D7
:102D000050F8046B2FFA96FE2FFA86F62EFB083346
:102D100026FB05333E4654F8047B2BFA97F82BFA32
:102D200087F551F8047B2FFA97FE2FFA87F72EFBD1
:102D3000082227FB052250F8047B2FFA97FE2FFA72
:102D400087F72EFB083327FB0533013E54F8045B5D
:102D50002BFA95F851F8047B2BFA85F52FFA97FE9C
:102D60002FFA87F72EFB082227FB052250F8047B59
:102D70002FFA97FE2FFA87F72EFB083E27FB05E375
:102D8000013E72D0CDE90E9ACDF87CC0A04658F82D
:102D9000045B2BFA95FA8E462BFA85F75EF8049BB6
:102DA0002FFA99FC2FFA89F52CFB0A2225FB07251F
:102DB00084465CF8042B2FFA92F92FFA82F229FB51
:102DC0000A3322FB073267682BFA97F94B682BFA14
:102DD00087F72FFA93FA2FFA83F32AFB095523FB7F
:102DE0000753D0F804A02FFA9AF52FFA8AFA25FB98
:102DF00009222AFB0729D8F804702BFA97F5DEF888
:102E000004802BFA87FA2FFA98F22FFA88F722FB20
:102E1000053327FB0A38DCF804E02FFA9EF72FFA77
:102E20008EFC27FB05992CFB0A95E26810342BFADF
:102E300092FACB682BFA82F710312FFA93FE2FFA11
:102E400083FC2EFB0A822CFB0722C36810302FFA6A
:102E500093FE2FFA83F82EFB0A5928FB0793043EB2
:102E600094D1DDE90E9ADDF87CC02399119C0AEB20
:102E700001005146239D0D9EB54266DD109D15F063
:102E8000030604EB050726D0012E17D0022E0AD028
:102E900014F9018B11F9015B10F9016BE04408FB97
:102EA000052208FB063314F9018B11F9015B10F9B7
:102EB000016BE04408FB052208FB063314F9018B83
:102EC00011F9015B10F9016BE044BC4208FB0522DB
:102ED00008FB063339D0CDF838B0A34688461BF935
:102EE000016B86469BF9015018F901BB664406FB4D
:102EF0000B221EF901BB98F901809EF901E006FB47
:102F00000B3394F9016091F901B0664406FB0B2282
:102F1000654405FB082B90F9012006FB023894F963
:102F2000036091F90330664406FB03B2043490F960
:102F300003B005FB0E85BC4201F1040106FB0B53F7
:102F400000F10400C9D1DDF838B0089C219F099E2A
:102F5000A2404FF080410020C2FB0710CA0F42EA96
:102F60004005DDE90680059C089F55FA06F158BF2B
:102F700040462540219E099C854203FA07F34FF005
:102F800080424FF00005C3FB06254FEAD27343EAA7
:102F90004507DDE90685059A209E259BC8BF0131BE
:102FA00057FA04F058BF45461740AF423144C8BFF6
:102FB00001303044269F039C049D009A9942B8BF7B
:102FC00019469842B8BF1846B942A8BF394689F891
:102FD0000010B8422799A8BF384609F8010001340B
:102FE0000B980394AC4281449244BFF68FAC019C91
:102FF0000A99002C7FF45CAE019A13465CE6029EAF
:10300000FFF748BA019BFFF735BB029A1F9912F9E7
:1030100001BB16F901CB289802928B4484440BFB28
:103020000C33FFF7DCBB00BF2DE9F04F1D680068D3
:103030008FB0DDE91D97189EDDF864A05DB30C46E6
:10304000D9F80C30DAF800100D9090464FF0010BD3
:103050000693D8F80430CDF824B0CDE90431D8F87F
:103060000020A368CDE9023223680D9ACDE90073F0
:1030700061680A9121690891E1681C9B07913046BB
:103080001A99FFF7CBF8DAF80010D9F80C30013DA7
:103090000E441F44DCD100200FB0BDE8F08F00BF0C
:1030A0002DE9F047089D0E4604460F46002B4AD1F5
:1030B00094468C45B2FA82F260D942B1C2F1200343
:1030C000974020FA03F30CFA02FC1F4394404FEAA6
:1030D0001C4E1FFA8CF6B7FBFEF1230C0EFB11778A
:1030E00043EA074301FB06F098420AD91CEB0303AD
:1030F00001F1FF3780F01581984240F212810239C8
:1031000063441B1AA4B2B3FBFEF00EFB103344EA77
:10311000034400FB06F6A6420AD91CEB040400F1A6
:10312000FF3380F00081A64240F2FD806444023803
:1031300040EA0140A41B00211DB1D4400023C5E991
:103140000043BDE8F0878B4205D90DB1C5E9000108
:1031500000210846F5E7B3FA83F1002946D1B342CE
:1031600002D3824200F2F580841A66EB030201204A
:103170001746002DE5D0C5E90047E2E7002A40F0F8
:103180009380A1EB0C034FEA1C471FFA8CFE012130
:10319000B3FBF7F607FB1630230C43EA00430EFBA4
:1031A00006F0984208D91CEB030306F1FF3802D25F
:1031B000984200F2D08046461B1AA4B2B3FBF7F047
:1031C00007FB103344EA03440EFB00FEA64508D972
:1031D0001CEB040400F1FF3302D2A64500F2B680D6
:1031E0001846A4EB0E0440EA0640A5E7C1F120070B
:1031F0008B4022FA07FC4CEA030C06FA01FE20FA87
:1032000007F426FA07F344EA0E0400FA01F84FEA3D
:103210001C404FEA1449B3FBF0FE1FFA8CF600FB8A
:103220001E3349EA03430EFB06F9994502FA01F2FF
:103230000BD91CEB03030EF1FF3A80F08580994512
:1032400040F28280AEF1020E6344A3EB0909A4B2FE
:10325000B9FBF0F300FB139944EA094403FB06F6BB
:10326000A64208D91CEB040403F1FF3068D2A64241
:1032700066D9023B644443EA0E40A41BA0FB02E66D
:10328000B4427346B14652D34FD05DB1B8EB03029E
:1032900064EB090404FA07F722FA01F31F43CC4058
:1032A000C5E9007400214CE7C2F1200120FA01F3C6
:1032B0000CFA02FC26FA01F1964033434FEA1C4710
:1032C0001FFA8CFEB1FBF7F007FB1016190C41EA50
:1032D000064100FB0EF68E4204FA02F408D91CEBFC
:1032E000010100F1FF382DD28E422BD90238614402
:1032F000891B9BB2B1FBF7F607FB161143EA0143AA
:1033000006FB0EF1994208D91CEB030306F1FF38C6
:1033100014D2994212D9023E63445B1A46EA004134
:1033200036E73946EDE6184602E7F045ADD2BEEB8A
:10333000020366EB0C060138B146A6E74646ECE709
:10334000034698E74046D3E7D6467EE76444023812
:1033500047E708460DE7023E63442DE7014B186836
:10336000704700BF0C00002070B50D4D0D4C641B64
:10337000A4100026A64209D10B4D0C4C02F0C8FC4B
:10338000641BA4100026A64205D170BD55F8043B6D
:1033900098470136EEE755F8043B98470136F2E7C7
:1033A00024670008246700082467000828670008CD
:1033B0002DE9FF4757EC106B002F0C4619463B4692
:1033C000BBBF07F100431F4600232D230B700D9B4D
:1033D000DDF830A0914623F02008BCBF32461646E7
:1033E000B8F1460F05D0B8F1450F00D101340221E4
:1033F00000E0032103AB019302AB009347EC106B99
:103400005346224600F0B0FFB8F1470F054619D1E8
:1034100019F0010F0ED000EB040900220023304602
:103420003946FDF76DFB08B1CDF80C903022039BB7
:103430004B451ED3039B0E9A5B1B2846136004B0BA
:10344000BDE8F087B8F1460F00EB0409E5D1037839
:10345000302B0AD10022002330463946FDF750FBBD
:1034600018B9C4F10104CAF80040DAF800309944F0
:10347000D3E7591C03911A70D9E7F7B50029BABFF1
:1034800049422D232B2309290270437029DD0DF1B8
:1034900007031D460A271A46B1FBF7F607FB161469
:1034A000303402F8014C0C46632C03F1FF333146F3
:1034B000F1DC3031941E03F8011C411C2346AB4261
:1034C0000AD30DF109039B1AAC4288BF00230233D3
:1034D0000344181A03B0F0BD13F8016B01F8016F33
:1034E000EDE7302330318370C170031DF1E7000038
:1034F0002DE9F04F8DB00C46DDF8588016461F467A
:10350000054600F0D1FB036804931846FDF788F8E0
:1035100000230A93D8F800300590073323F00703FF
:1035200003F1080294F818A0D4F800B0C8F80020FD
:10353000D3E9008929F000430793CDF81880C4E946
:103540001289DDE906019C4B4FF0FF32FDF70AFBC3
:1035500070BBDDE90601984B4FF0FF32FDF7E4FA4E
:1035600030BB0022002340464946FDF7D3FA10B194
:103570002D2384F84330914A914BBAF1470F8CBF09
:1035800090469846032323612BF0040323604FF0F9
:103590000009009733460BAA2146284600F08BFB12
:1035A000013040F08D804FF0FF300DB0BDE8F08F5E
:1035B00042464B4640464946FDF7D4FA40B14B4699
:1035C000002BBCBF2D2384F843307E4A7E4BD4E7CA
:1035D00063680AF0DF0206925A1C3BD1062363603F
:1035E0004BF480620023226003930AABCDE901A370
:1035F00009AB0093616849EC108B0DF12303284659
:10360000FFF7D6FE069B0999472B804629D1C81C97
:1036100002DB6368994241DDAAF1020A5FFA8AFA85
:103620000139524604F150000991FFF726FF0A9A2A
:103630001318012A8146236102DC2268D20701D5D2
:10364000013323619DF82330002BA2D02D2384F871
:1036500043309EE7069A472AC2D1002BC0D10123EE
:10366000BDE7BAF1650FDBD9BAF1660F18D10029B1
:1036700063680BDD216113B92268D00702D50133DD
:103680000B442361A1654FF00009DBE713B9226801
:10369000D20701D50233F4E70123F2E74FF0670ABE
:1036A0000A9B994205DB23682161D807EAD54B1CA8
:1036B000E7E70029D4BFC1F1020201221344E0E789
:1036C00023685A0507D42369424631462846B8473D
:1036D00001302BD167E7BAF1650F40F2DD80D4E904
:1036E000120100220023FDF70BFA002833D0374ADD
:1036F000012331462846B84701303FF454AFDDE995
:103700000938434502DB2368D8070FD5DDE90423D8
:1037100031462846B84701303FF445AF4FF0000925
:1037200008F1FF3804F11A0AC84509DC23689B0731
:1037300000F10381E0680B9B9842B8BF184634E75C
:103740000123524631462846B84701303FF42BAF9B
:1037500009F10109E8E7099B002B39DC1B4A012329
:1037600031462846B84701303FF41DAFDDE909393D
:1037700059EA030302D12368D907D7D5DDE9042329
:1037800031462846B84701303FF40DAF4FF0000AEC
:1037900004F11A0B099B5B42534501DC4B4693E74E
:1037A00001235A4631462846B84701303FF4FBAE64
:1037B0000AF1010AEEE700BFFFFFEF7FAC630008EC
:1037C000A8630008B4630008B0630008B863000889
:1037D000A36DDDF828A05345A8BF5346002B99469A
:1037E00036DC4FF0000B29EAE97904F11A02A36DE7
:1037F0000693A3EB09035B4531DC099B9A453ADC50
:103800002368DA0737D4099BAAEB0309069BAAEBC6
:1038100003039945A8BF9946B9F1000F33DC4FF077
:10382000000829EAE97904F11A0B099BAAEB0303C2
:10383000A3EB090343457FF779AF01235A4631468D
:103840002846B84701303FF4AEAE08F10108ECE776
:10385000424631462846B8470130C2D1A3E601238B
:10386000314628460692B84701303FF49CAE069A8E
:103870000BF1010BBBE7DDE9042331462846B847CD
:103880000130C0D18FE6069A4B4642443146284665
:10389000B8470130C3D186E6DDF828A0BAF1010FA0
:1038A00001DCDB0736D50123424631462846B847BE
:1038B00001303FF478AEDDE9042331462846B847AD
:1038C00001303FF470AED4E91201002200230AF166
:1038D000FF3AFDF715F9C0B9534608F10102314628
:1038E0002846B84701300CD15DE601235A463146DF
:1038F0002846B84701303FF456AE08F10108D045DC
:10390000F3DB4B4604F15002DFE64FF0000804F110
:103910001A0BF4E701234246E1E701234A46314608
:103920002846B84701303FF43EAE08F10108E3688D
:103930000B995B1A4345F0DCFCE64FF0000804F1FC
:103940001909F4E70FB407B5064904AB086853F842
:10395000042B8168019300F031F803B05DF804EBAB
:1039600004B070470C0000209368013B002B10B49A
:10397000936008DA9469A34201DB0A2903D15DF858
:10398000044B01F0EDBA1368581C1060197008461A
:103990005DF8044B7047F8B506460F461446D51837
:1039A000AC4201D1002007E014F8011B3A46304632
:1039B000FFF7DAFF431CF3D1F8BD00002DE9F04F0B
:1039C0000D469DB014469846064618B1036A0BB9D9
:1039D00000F0E6FB6B6ED90705D4AB899A0502D4DB
:1039E000A86D00F066F9AB891B0701D52B699BB95F
:1039F0002946304600F002F970B16B6EDC0704D541
:103A00004FF0FF301DB0BDE8F08FAB899805F7D4BB
:103A1000A86D00F04FF9F3E70023099320238DF8F8
:103A20002930CDF80C803023DFF8AC818DF82A30B6
:103A30004FF0010923469A4613F8012B0AB1252AB3
:103A4000F9D1BAEB040B0BD05B462246294630462F
:103A5000FFF7A1FF013000F0A780099A5A440992AC
:103A60009AF80030002B00F09F8000234FF0FF32C7
:103A7000CDE905230AF1010A049307938DF8533029
:103A80001A935446052214F8011B5348FCF778FD9D
:103A9000049AD8B9D10644BF20238DF853301307B8
:103AA00044BF2B238DF853309AF800302A2B15D0C1
:103AB000079A544600204FF00A0C214611F8013BAA
:103AC000303B092B4BD9B0B1079214E0A0EB0803AF
:103AD00009FA03F313430493A246D2E7039B191D8B
:103AE0001B680391002BBBBF5B4242F002020793AD
:103AF0000793B8BF049223782E2B0AD163782A2B20
:103B000032D1039B1A1D1B68039243EAE37302340C
:103B10000593DFF8D4A0217803225046FCF730FD4E
:103B200038B1049BA0EB0A004022824013430134C9
:103B3000049314F8011B29488DF828100622FCF77D
:103B40001FFD00283FD0264B1BBB039B073323F0F0
:103B5000070308330393099B3B4409936AE70CFB73
:103B600002320C460120A8E70023013405931946D0
:103B70004FF00A0C204610F8012B303A092A03D9DD
:103B8000002BC6D00591C4E70CFB0121044601239C
:103B9000F0E703AB00932A46124B04A93046FFF727
:103BA000A7FC0746781CD6D16B6ED90705D4AB8924
:103BB0009A0502D4A86D00F07DF8AB895B063FF54D
:103BC0001FAF09981EE703AB00932A46054B04A9D3
:103BD000304600F0DDF8E4E7BA630008C46300088B
:103BE000F134000897390008C06300080244034616
:103BF000934200D1704703F8011BF9E738B5294B10
:103C0000054618680C4618B1036A0BB900F0C8FAEB
:103C1000B4F90C30190722D4DA0607D409222A6035
:103C200043F04003A3814FF0FF3033E0580712D533
:103C3000616B41B104F14403994202D0284601F07E
:103C4000CDF900236363A38923F02403A381002318
:103C5000636023692360A38943F00803A381236978
:103C60004BB9A38903F42073B3F5007F03D0214639
:103C7000284601F035FAB4F90C3013F001020AD0ED
:103C80000022A26062695242A261226942B913F025
:103C90008000C5D138BD990758BF6269A260F4E7BA
:103CA0000020F7E70C000020004870475801002072
:103CB0007047704770472DE9F047164698468A6866
:103CC0000B69DDF820909342B8BF1346336091F83A
:103CD000432007460C460AB1013333602368990636
:103CE00042BF336802333360256815F0060506D1FC
:103CF00004F1190AE36832689B1AAB4226DC94F897
:103D000043302268003B18BF012392062BD404F1F4
:103D1000430241463846C84701301ED02368226915
:103D200003F00603042B02BFE5683368ED1AA368AD
:103D30000CBF25EAE57500259342C4BF9B1AED1818
:103D400000261A34B5421AD1002008E00123524659
:103D500041463846C847013003D14FF0FF30BDE837
:103D6000F0870135C6E7E1185A1C302081F843007E
:103D7000224494F8451082F843100233C7E7012328
:103D8000224641463846C8470130E6D00136D9E7D9
:103D90002DE9FF470F7E0C9E782F914680460C46FA
:103DA0009A4601F1430207D8622F0AD8002F00F08B
:103DB000D180582F00F0B88004F1420684F8427098
:103DC0003AE0A7F16303152BF6D801A151F823F0CF
:103DD000293E00083D3E0008B93D0008B93D0008F5
:103DE000B93D0008B93D00083D3E0008B93D000856
:103DF000B93D0008B93D0008B93D00083B3F000847
:103E0000673E0008F53E0008B93D0008B93D0008CE
:103E10005D3F0008B93D0008673E0008B93D000855
:103E2000B93D0008FD3E000833681A1D1B6832606A
:103E300004F1420684F8423001239CE03368206894
:103E4000191D3160060601D51D6803E04506FBD546
:103E5000B3F90050002D03DA2D236D4284F843306E
:103E600058480A2311E021683368080653F8045BB8
:103E700002D4490648BFADB26F2F5248336014BF19
:103E80000A230823002184F843106668A660002EE8
:103E900005DB21682E4321F0040121604BD016463A
:103EA000B5FBF3F103FB1157C75D06F8017D2F4603
:103EB000BB420D46F4D9082B0BD12368DF0708D588
:103EC000236961689942DEBF302306F8013C06F1A0
:103ED000FF36921B2261CDF800A04B4603AA214673
:103EE0004046FFF7E8FE01304AD14FF0FF3004B002
:103EF000BDE8F087236843F0200323603248782729
:103F000084F84570236831681F0651F8045B02D4B9
:103F10005F0648BFADB23160D90744BF43F020030C
:103F200023601DB11023ADE72648E9E7236823F09D
:103F300020032360F6E71646BDE73368256861690C
:103F4000181D30602E061B6801D5196002E0680656
:103F5000FBD51980002323611646BCE733681A1D80
:103F600032601E68626800213046FCF709FB08B128
:103F7000801B606063682361002384F84330AAE7F4
:103F80002369324649464046D0470130ADD02368C8
:103F90009B0713D4E068039B9842B8BF1846A6E776
:103FA0000123324649464046D04701309DD0013575
:103FB000E36803995B1AAB42F2DCEBE7002504F1FE
:103FC0001906F5E7CB630008DC630008036A70B5E7
:103FD000846805460E460BB900F0E2F8636EDB0715
:103FE00005D4A389980502D4A06DFFF762FEA389CA
:103FF000190702D52369002B35D121462846FFF742
:10400000FDFD80B34FF0FF35636EDA0705D4A38959
:104010009B0502D4A06DFFF74DFE284670BD002B16
:1040200004DAA2699A4217DC0A2915D023685A1CBF
:1040300022601970A36816F8011F013BA3600029D4
:10404000EDD1002B11DA22460A21284600F088FF24
:104050000130D7D00A25D7E72246284600F080FF56
:104060000130E7D1CEE7013EE4E723685A1C226025
:104070000A221A70EEE70000024B01461868FFF7AB
:10408000A5BF00BF0C000020002310B50446C0E906
:104090000033C0E90433836081814366C281836158
:1040A000194608225C30FFF7A1FD0D4B63620D4BF2
:1040B000A3620D4BE3620D4B23630D4B24629C42C4
:1040C00006D003F16802944202D0D0339C4205D15D
:1040D00004F15800BDE81040FFF7EABD10BD00BF75
:1040E000D1410008F34100082B4200084F4200086C
:1040F00048020020024A0349034800F013BF00BFF2
:104100005C0000207D5200081000002041680C4B2C
:10411000994210B5044601D001F0B0F8A168094BEE
:10412000994202D0204601F0A9F8E168064B994275
:1041300004D02046BDE8104001F0A0B810BD00BF7B
:1041400048020020B00200201803002010B50B4BDD
:104150000B4C0C4A1A60204600220421FFF794FF02
:1041600004F1680001220921FFF78EFF04F1D0005D
:104170000222BDE810401221FFF786BF8003002015
:1041800048020020F54000080148FFF792BD00BF3B
:10419000450200200148FFF78DBD00BF4502002009
:1041A00010B50446FFF7F0FF236A1BB1BDE81040CD
:1041B000FFF7F0BF044B2362044B1B68002BF5D1C3
:1041C000FFF7C4FFF2E700BF0D41000880030020A5
:1041D00010B50C46B1F90E1000F092FE0028ABBFEE
:1041E000636DA3891B1823F48053ACBF6365A3815F
:1041F00010BD2DE9F0411F468B89DB0505460C46B5
:10420000164605D5B1F90E100223002200F066FE15
:10421000A389B4F90E1023F48053A38132463B46A0
:104220002846BDE8F04100F023BF10B50C46B1F9B7
:104230000E1000F053FE431CA38915BF606523F4E4
:10424000805343F48053A38118BFA38110BDB1F9FB
:104250000E1001F0E5B82DE9F74F03690C69A34290
:1042600007467EDB013C01F11408A30000F11405B0
:10427000009305EB8403019358F8243055F824206B
:1042800001339A4208EB8409B2FBF3F62ED34FF0C8
:10429000000AC446AE46D3465CF8043B98B206FB1F
:1042A00000A0020C1B0C06FB0323DEF8002080B2EA
:1042B00092B2121A5A44DEF800004FEA134A9BB237
:1042C000C3EB224303EB104392B242EA0342E145BF
:1042D0004EF8042B4FEA234BDED2009BEB582BB950
:1042E000019B043B9D421A462FD33C61384601F0A6
:1042F00087FB002825DB2946002058F8042BD1F83D
:1043000000C01FFA82FE1FFA8CF3A3EB0E030344D6
:10431000120CC2EB234202EB1C429BB243EA024363
:10432000C14541F8043B4FEA2240E6D255F824202B
:1043300005EB840322B9043B9D421A460BD33C6132
:104340000136304603B0BDE8F08F1268043B002A06
:10435000CBD1013CC6E71268043B002AEFD1013CF7
:10436000EAE70020EEE700002DE9F04FC76999B0B9
:104370008DED040B55EC104B229E099183460E9255
:1043800013937FB9102000F0A1FF0246CBF81C0068
:1043900020B9A54BEF21A54801F076F8C0E90177D7
:1043A0000760C760DBF81C30196859B15A684A6069
:1043B000012393408B60584601F0F0F8DBF81C3085
:1043C00000221A602B1EB9BF23F00043059300237F
:1043D0003360059F964BBCBF01223260BB4312D1B4
:1043E000139A42F20F731360C7F31303234300F0D1
:1043F0004385239BDFF84CA2002B00F045850AF192
:10440000030300F03FBD9DED047B002251EC170B30
:1044100000238DED0C7BFCF773FB804658B1139A9B
:1044200001231360239B13B1239A824B1360DFF89F
:1044300018A200F029BD9DED0C0B16AA17A958462D
:1044400001F08EFBC7F30A568146002E77D00D9BF4
:10445000CDF85080C3F31303DDE90C0143F07F5323
:1044600043F44013A6F2FF3619460022724BFBF7C5
:10447000B3FE67A3D3E90023FCF7DAF866A3D3E918
:104480000023FBF7ABFE044630460D46FBF7F2FF78
:1044900063A3D3E90023FCF7CBF802460B46204682
:1044A0002946FBF79BFE04460D46FCF771FB0022F4
:1044B0000746002320462946FCF72CFB40B138462E
:1044C000FBF7D8FF22462B46FCF71AFB00B9013F49
:1044D000162F51D8594B03EBC703D3E90023DDE96D
:1044E0000C01FCF717FB002848D0013F0023129372
:1044F000169B9B1B5A1E44BFC3F101080023089260
:1045000054BF4FF000080893002F39DB089B0F972A
:104510003B44089300230A93099B092B61D8052B80
:10452000C4BF043B0993099BA3F10203CCBF002441
:104530000124032B61D8DFE803F05052352ADDE96E
:1045400016631E4406F23243202BC1BFC3F1400361
:104550009F4006F2124324FA03F3D6BFC3F12003AF
:1045600047EA030004FA03F0FBF774FF0122A1F10C
:10457000F873013E149277E70123B8E71290B7E78A
:104580007B420A930023A8EB07080F93C4E701239B
:104590000B930E9BFB1800930133012B0393B8BFC1
:1045A000012306E001230B930E9B002B28DD0093D3
:1045B0000393DBF81C000021042202F114059D4244
:1045C00023D94160584600F0A9FF824600283DD11A
:1045D0001B4B024640F2AF11DDE60023E3E7002368
:1045E000D6E70124002309930B944FF0FF33009387
:1045F0000393002212230E92DBE701230B93F4E7CF
:104600000123009303931A46F5E701315200D4E7E2
:1046100061436F63A787D23FB3C8608B288AC63FC8
:10462000FB799F501344D33FFA63000811640008DC
:104630000000F07FB96300080000F83F50650008F3
:104640006A640008F6630008B8630008DBF81C30F1
:104650001860039B0E2B00F2A180002C00F09E80BE
:10466000002F33DD9C4B07F00F0203EBC20393EDE9
:10467000007BF8058DED067B4FEA271416D5974B86
:10468000DDE90C01D3E90823FCF7FCF8CDE90401CE
:1046900004F00F040326914D54B9DDE90623DDE94A
:1046A0000401FCF7EFF8CDE9040128E00226F2E767
:1046B000E10708D5DDE90601D5E90023FBF7B8FFDE
:1046C000CDE90601013664100835E5E700F0AF805A
:1046D0007C42814B814D04F00F0203EBC203D3E90E
:1046E0000023DDE90C01FBF7A3FFCDE90401241150
:1046F00000230226002C40F08F80002BD3D1129B88
:10470000DDE90445002B00F09480754B0022204623
:104710002946FCF7FFF9002800F08B80039B002B53
:1047200000F08780009B002B34DD7B1E0693204623
:104730006C4B00222946FBF77BFFCDE90401009C6E
:1047400001363046FBF796FEDDE90423FBF770FFE8
:10475000654B0022FBF742FD0546A1F15076002C87
:104760006AD1DDE90401614B0022FBF735FD024609
:104770000B46CDE904232A463346FCF7E9F9002825
:1047800040F08782DDE904012A4606F10043FCF788
:10479000C1F938BBDDE90C34CDE90434179B002B9B
:1047A000C0F258810E2F00F355814B4B03EBC7032A
:1047B00093ED007B0E9B002B8DED007B80F2E5805E
:1047C000039B002B00F3E1800CD1484B002251ECFD
:1047D000170BFBF72DFFDDE90423FCF7AFF90028E9
:1047E00000F05582002425460E9BDB430693564677
:1047F00000272146584600F0D1FE002D00F0BD8074
:104800002FB1AF4203D03946584600F0C7FE2946C3
:10481000584600F0C3FEB0E0E20705D5D5E9002315
:10482000FBF706FF013601236410083562E7022614
:1048300065E7039C069784E7274B0B9903EBC403BA
:1048400053E902235444002954D029490020FCF79D
:1048500019F833462A46FBF7BFFCCDE9100156464E
:10486000DDE90401FCF794F90546FBF703FE024677
:104870000B46DDE90401FBF7AFFC303502460B4681
:10488000CDE9042306F8015BDDE91023FCF742F9CA
:10489000002872D1DDE9042311490020FBF79CFCBC
:1048A000DDE91023FCF736F9002840F0B480A64279
:1048B0003FF470AFDDE910010A4B0022FBF7B8FEB0
:1048C000084BCDE910010022DDE90401FBF7B0FE41
:1048D000CDE90401C4E700BF506500082865000861
:1048E0000000F03F0000244000001C400000144085
:1048F0000000E03F31462846FBF79AFECDE9100163
:1049000015945646DDE90401FCF742F90546FBF72C
:10491000B1FD02460B46DDE90401FBF75DFC3035D5
:1049200006F8015B02460B46A642CDE904234FF090
:10493000000224D1AB4BDDE91001FBF74FFC02462E
:104940000B46DDE90401FCF703F9002863D1DDE93A
:104950001023A4490020FBF73FFC02460B46DDE98B
:104960000401FCF7D7F800283FF414AF159E731E1E
:10497000159316F8013C302BF8D0069F3BE09A4B7C
:10498000FBF756FECDE90401BCE7DDE904455646D8
:10499000DDE9002320462946FBF774FFFCF7F8F811
:1049A0008046FBF767FDDDE90023FBF741FE024689
:1049B0000B462046294608F13004FBF70DFC06F8AB
:1049C000014B039DA6EB0A04A54202460B4634D1D7
:1049D000FBF704FCDDE9002304460D46FCF7B8F8BC
:1049E000C0B9DDE9002320462946FCF789F810B15B
:1049F00018F0010F0ED14946584600F0CFFD0023B4
:104A00003370139B01371F60239B002B00F03C8207
:104A10001E6039E2069733461E4613F8012D392AE7
:104A200007D19A45F8D1069A0132069230228AF8C7
:104A300000201A7801321A709FE76B4B0022FBF7B7
:104A4000F7FD0022002304460D46FCF759F8002824
:104A50009ED0D0E70B9A002A00F0E180099A012A43
:104A600000F3C480149A002A00F0B78003F23343A5
:104A70000A9C4646089A01211A44584698440892CE
:104A800000F040FE05465EB1089B002B08DDB342F6
:104A9000089AA8BF3346A8EB0308F61AD31A08935E
:104AA0000A9BF3B10B9B002B00F0BD808CB1294613
:104AB0002246584600F0DEFE4A4601460546584664
:104AC00000F036FE49460690584600F067FD069B0A
:104AD00099460A9B1A1B04D04946584600F0CAFE64
:104AE00081460121584600F00DFE0F9B0446002B25
:104AF00000F0CE811A460146584600F0BBFE099BE5
:104B0000012B044600F39580049B002B40F08D8020
:104B1000059BC3F31303002B40F08980059B23F012
:104B200000431B0D1B052BB1089B0133089308F1B3
:104B3000010801230A930F9B002B00F0AF8123692A
:104B400004EB8303186900F091FDC0F12000089B7D
:104B5000184410F01F0077D0C0F12003042B6BDD48
:104B6000089BC0F11C000344804406440893B8F13C
:104B7000000F05DD49464246584600F0D5FE814605
:104B8000089B002B05DD21461A46584600F0CCFE56
:104B90000446129B002B59D02146484600F030FFB6
:104BA000002853DA7B1E0693494600230A22584602
:104BB00000F016FD0B9B8146002B00F07181002355
:104BC00029460A22584600F00BFD009B002B0546A3
:104BD00067DC099B022B41DC63E0169BC3F13603C3
:104BE00046E700BF0000E03F00002440039B5C1E3E
:104BF0000A9BA34209DB1C1B039B002BBFF639AFAA
:104C0000039BA8EB0306002334E70A9B0F9A0A9440
:104C1000E31A1A440F92039B464600242AE70A9C93
:104C20000B9D46462FE70A9A56E7002382E7049B2E
:104C300080E700230A9382E799D0089A1C331A442C
:104C400098441E44089292E70346F6E7039B0697B2
:104C5000002B20DC0093099B022B1EDD009B002B08
:104C60007FF4C2AD21460522584600F0B9FC01464A
:104C70000446484600F0C4FE00287FF7B5AD56460E
:104C8000312306F8013B069B01330693B0E5039CF4
:104C900006972546F3E7039B00930B9B002B00F040
:104CA0000381002E05DD29463246584600F03CFEC1
:104CB00005460A9B002B5AD06968584600F02EFC26
:104CC000064628B9834B024640F2EF21FFF763BB4B
:104CD0002A690232920005F10C010C3000F0F2FB5F
:104CE00001223146584600F01FFE0AF101030393EA
:104CF000009B53440B93049B03F001032F460A933C
:104D00000546039B2146013B48460093FFF7A3FA63
:104D10003946049000F13008484600F071FE2A46FA
:104D200008902146584600F087FEC268064602BB3E
:104D30000146484600F064FE0246314658460E924F
:104D400000F02CFC099B0E9A039E42EA03010A9B89
:104D5000194310D1B8F1390F29D0089B002B02DD7F
:104D6000049B03F13108009B83F8008041E528464D
:104D7000BBE70122E1E7089B002B04DB09990B4309
:104D80000A990B4320D1002AEDDD494601225846FD
:104D900000F0CAFD2146814600F032FE002803DC07
:104DA000E1D118F0010FDED0B8F1390FD8D1009A57
:104DB0003923137033461E46013B16F8012C392A5D
:104DC00051D001321A7014E5002A07DDB8F1390F0D
:104DD000EDD0009A08F1010313700AE5039B0B9ACA
:104DE00003F8018C934228D0494600230A225846F2
:104DF00000F0F6FBAF4281464FF000034FF00A028D
:104E00003946584607D100F0EBFB07460546039BA1
:104E10000133039375E700F0E3FB294607460023BF
:104E20000A22584600F0DCFB0546F0E7009B002B09
:104E3000CCBF1E460126564400274946012258464B
:104E400000F072FD2146814600F0DAFD0028B1DC59
:104E500002D118F0010FADD133461E4613F8012DD3
:104E6000302AFAD0C5E49A45A5D1069B01330693B2
:104E700031238AF80030BCE4239BDFF85CA01BB12F
:104E80000AF10803239A1360504619B0BDE8F08F69
:104E9000099B012B7FF738AE0F9B0A93012056E642
:104EA000009B002B7FF7D7AE564621464846FFF7BA
:104EB000D2F900F1300806F8018B009BA6EB0A023C
:104EC0009342B3DD494600230A22584600F088FB8E
:104ED0008146EAE76A640008ED63000838B5074DCB
:104EE00004460846114600222A601A46FBF75AFF7C
:104EF000431C02D12B6803B1236038BD8C03002012
:104F000038B5074D04460846114600222A601A4665
:104F1000FBF720FF431C02D12B6803B1236038BD8F
:104F20008C0300202DE9F8430746884614460026E6
:104F3000D4E90195B9F1010905D52468002CF7D110
:104F40003046BDE8F883AB89012B07D9B5F90E309F
:104F5000013303D029463846C04706436835E9E7A0
:104F6000F8B50E461446054618B1036A0BB9FFF7AB
:104F700017F9A369A360A3891A0701D5236943B967
:104F800021462846FEF73AFE18B14FF0FF37384663
:104F9000F8BD23682269981A6369F6B283423746DE
:104FA00005DC2146284600F069F90028EDD1A36808
:104FB000013BA36023685A1C22601E706269431C77
:104FC0009A4204D0A389DB07E1D50A2EDFD121461E
:104FD000284600F053F90028D9D0D6E738B5054661
:104FE000002941D051F8043C0C1F002BB8BFE41835
:104FF00000F088FA1D4A136833B9636014602846CC
:10500000BDE8384000F084BAA34208D920682118CE
:105010008B4201BF19685B6809182160EDE71A46E9
:105020005B680BB1A342FAD911685018A0420BD1AA
:1050300020680144501883421160E0D118685B6811
:10504000536008441060DAE702D90C232B60D6E7DE
:10505000206821188B4204BF19685B68636004BF35
:10506000091821605460CAE738BD00BF88030020DA
:1050700038B5074D04460846114600222A601A46F4
:10508000FBF776FE431C02D12B6803B1236038BDC9
:105090008C03002070B50C46B1F90E10002996B0B3
:1050A00015461E460DDAA38913F0800F4FF000015C
:1050B00014BF40234FF48063002031602B6016B092
:1050C00070BD6A4600F0BCF90028ECDB019901F4E0
:1050D0007041A1F50053594259414FF48063EBE709
:1050E0008B89F7B59D0706460C4607D504F14703A3
:1050F000236023610123636103B0F0BD01AB6A4605
:10510000FFF7C8FF009F05463946304600F008F912
:1051100048B9B4F90C309A05EED423F0030343F0F8
:105120000203A381E2E7A389206043F08003A38107
:10513000019BC4E904075BB1B4F90E10304600F0DE
:105140007BFD28B1A38923F0030343F00103A3816E
:10515000A3891D43A581CFE70346084641B1FF2A35
:1051600004D98A221A604FF0FF3070470A7001207C
:1051700070470000B1F90C202DE9F04116070546F3
:105180000C4654D44B68002B02DC0B6C002B48DD22
:10519000E66A002E45D0002312F480522F68216A5F
:1051A0002B6030D0626DA389590705D56368D21A88
:1051B000636B0BB1236CD21A0023E66A216A28467E
:1051C000B047431CA38906D129681D292BD82A4A38
:1051D000CA40D60727D500226260D904226922601E
:1051E00004D5421C01D12B6803B96065616B2F6047
:1051F000B9B104F14403994202D02846FFF7EEFE0C
:10520000002363630DE001232846B0470246501C8B
:10521000C9D12B68002BC6D01D2B01D0162B1ED157
:105220002F60002022E043F040031BB21BE00F6917
:10523000002FF6D093070E6808BF4B690F6018BFA8
:105240000023A6EB07088B60B8F1000FE9DD216AA7
:10525000A66A43463A462846B047002808DCB4F917
:105260000C3043F04003A3814FF0FF30BDE8F081E4
:105270000744A8EB0008E7E70100402038B50B69B8
:1052800005460C4613B90025284638BD18B1036AF7
:105290000BB9FEF785FFB4F90C30002BF3D0626E2A
:1052A000D00704D4990502D4A06DFEF702FD28466C
:1052B0002146FFF75FFF636EDA070546E4D4A38952
:1052C0009B05E1D4A06DFEF7F5FCDDE7024B01463E
:1052D000186800F025B800BF0C00002070B50F4E14
:1052E0000C463168054611B900F0B6FC3060214625
:1052F000284600F0B1FC431C03D14FF0FF34204698
:1053000070BDC41C24F00304A042F8D0211A284622
:1053100000F0A2FC0130F2D1EFE700BF84030020CF
:105320002DE9F843CD1C25F0030508350C2D38BFB9
:105330000C25002D064601DBA94204D90C2333605D
:105340000020BDE8F883DFF8D48000F0DBF8D8F85F
:1053500000301C4644BB29463046FFF7BFFF431CC4
:10536000044658D1D8F800402746002F43D1002CDE
:105370004BD023683946304604EB030900F06CFC3F
:10538000814542D121686D1A29463046FFF7A6FFB4
:1053900001303AD023682B442360D8F800305A6893
:1053A00062BBC8F800700FE02268521B20D40B2AA1
:1053B00017D96119A342256018BF5960636808BFF7
:1053C000C8F8001062514B60304600F0A1F804F1BB
:1053D0000B00231D20F00700C21A1CBF1B1AA3508C
:1053E000AFE76268A3420CBFC8F800205A60EBE741
:1053F00023466468AEE73C467F68B6E71A465B68BA
:10540000A342FBD100235360DEE70C233360304618
:1054100000F07EF894E70560D6E700BF880300201F
:1054200038B5064D0023044608462B60FBF7AEFC5A
:10543000431C02D12B6803B1236038BD8C030020CC
:1054400038B5074D00230446084611462B60FBF78C
:10545000A1FC431C02D12B6803B1236038BD00BFFF
:105460008C03002082B001B901A942B14BB113787D
:105470000B601278101E18BF012002B07047104652
:10548000FBE76FF00100F8E71FB514461A46094B19
:105490001B680546D8684CB1074B0091CDE9013433
:1054A00006492B4600F01CF800F0E6FB044B1C46B6
:1054B000F3E700BF0C000020856400089264000838
:1054C000C06400080A44914200F1FF3300D17047E4
:1054D00010B511F8014B03F8014F9142F9D110BDFD
:1054E0000EB403B5014603AB054853F8042B00681E
:1054F0000193FEF763FA02B05DF804EB03B0704766
:105500000C0000200148FEF7D4BB00BF440200207D
:105510000148FEF7CFBB00BF4402002070B5C6694A
:1055200004460D4676B91020FFF7D0FE0246E06132
:1055300020B9184B18486B21FFF7A6FFC0E9016698
:105540000660C660E669F36883B1E369DB6853F817
:105550002500B8B9012101FA05F6721D9200204616
:1055600000F056FB60B1C0E901560EE02122042193
:10557000204600F04DFBE369F060DB68002BE4D1CE
:10558000002070BD026843F825200023C0E90333E2
:10559000F7E700BFFA630008C164000870B5C66988
:1055A00005460C4676B91020FFF790FE0246E861EA
:1055B00020B9094B09488F21FFF766FFC0E9016652
:1055C0000660C6603CB1EB696268DB6853F8221084
:1055D000216043F8224070BDFA630008C1640008EE
:1055E0002DE9F0410D6907460C461E4601F1140CE9
:1055F0000020DCF8003099B202FB01611E0C0B0C9C
:1056000002FB063389B2013001EB034185424CF8BD
:10561000041B4FEA1346ECDC0EB3A368AB4219DC63
:10562000616838460131FFF779FF804628B90246A4
:105630000C4B0D48BA21FFF727FF2269023204F113
:105640000C0192000C30FFF73DFF21463846FFF772
:10565000A5FF444604EB850301355E6125612046C4
:10566000BDE8F0816A640008C1640008B0F5803FBD
:10567000034636BF030400201020B3F1807F3CBFF7
:105680001B020830B3F1805F3CBF1B010430B3F153
:10569000804F3CBF9B000230002B05DB13F0804F96
:1056A00000F1010008BF202070470368024613F094
:1056B00007000BD0D90721D4980749BF5B089B0886
:1056C000012013605CBF13600220704799B209B9D2
:1056D0001B0C1020D9B209B908301B0A190704BFE6
:1056E0001B090430990704BF9B080230D90703D473
:1056F0005B0800F1010003D0136070470020704781
:105700002020704710B50C460121FFF707FF024625
:1057100028B9054B054840F24511FFF7B5FE0123B6
:105720004461036110BD00BF6A640008C1640008E1
:105730002DE9F04F17460A693B699A42A8BF3B46DC
:105740008946A4BF0F4699463D69D9F810A0BB68A9
:10575000796805EB0A06B34285B0B8BF0131FFF79F
:10576000DDFE30B90246414B41484FF4B171FFF7BD
:105770008BFE00F1140404EB860E234600227345D1
:1057800020D307F1140809F1140108EB850501EB9A
:105790008A030293EB1B153B23F0030304331537F5
:1057A000BD4238BF04230193029B03918B420CD866
:1057B000002E03DD5EF8043D002B55D0066105B0D8
:1057C000BDE8F08F43F8042BD9E7B1F800A0BAF197
:1057D000000F1FD0C446A14600275CF8042BD9F85F
:1057E00000301FFA82FB9BB20AFB0B333B44D9F813
:1057F0000070120C3F0C0AFB027202EB13429BB2C8
:1058000043EA0243654549F8043B4FEA1247E4D8AE
:10581000019BE750039BB3F802900431B9F1000FEC
:1058200020D023684746A4464FF0000AB7F800B0DE
:10583000BCF8022009FB0B2252449BB243EA02430C
:105840004CF8043B57F8043B4FEA134ABCF80030CD
:1058500009FB0A3303EB1243BD424FEA134AE5D872
:10586000019AA35004349FE7013EA1E76A6400084F
:10587000C16400082DE9F843154612F003020746FB
:105880000E4607D0254C013A002354F82220FFF79A
:10589000A7FE0646AD103DD0FC697CB91020FFF78D
:1058A00015FD0246F86128B91D4B1E4840F2B311A0
:1058B000FFF7EAFDC0E901440460C460D7F81C802A
:1058C000D8F808404CB940F271213846FFF71AFF6A
:1058D0000023C8F80800044603604FF00009EB07F6
:1058E0000AD5314622463846FFF722FF3146804628
:1058F0003846FFF753FE46466D100BD0206838B986
:10590000224621463846FFF713FF2060C0F800907A
:105910000446E4E73046BDE8F88300BF1C65000894
:10592000FA630008C16400082DE9F0470C46496895
:10593000236903EB6218A368074691464FEA621A8F
:1059400008F10106B3420BDB3846FFF7E7FD0546D9
:1059500048B90246284B29484FF4EF71FFF794FDF0
:1059600001315B00EEE7002300F1140100F11002A9
:105970001846534533DB20692AEAEA7A04F1140316
:1059800019F01F0901EB8A0103EB800C2BD0C9F140
:10599000200E8A460022186800FA09F010434AF8DF
:1059A000040B53F8042B9C4522FA0EF2F3D8ACEB0F
:1059B0000403153B23F00303043304F11500604591
:1059C00088BF0423CA500AB108F10206013E3846D6
:1059D0002E612146FFF7E2FD2846BDE8F08742F838
:1059E000040F0133C5E7043953F8042B41F8042FA1
:1059F0009C45F9D8EAE700BF6A640008C164000862
:105A00000A6903460069801A30B50ED11433143187
:105A100003EB820401EB820154F8045D51F8042D7C
:105A2000954203D005D24FF0FF3030BDA342F3D3EF
:105A3000FBE70120F9E700002DE9F74F894606460C
:105A4000114648461446FFF7DBFF051E12D12946D2
:105A50003046FFF763FD024628B93F4B40F237213D
:105A60003E48FFF711FD0123C0E90435104603B09D
:105A7000BDE8F08FBCBF4B46A1463046D9F80410B4
:105A8000BABF1C4601250025FFF748FD024618B99C
:105A9000314B40F24521E3E7D9F810702669C56023
:105AA00009F1100309F1140504F1140E00F1140BAF
:105AB00005EB87080EEB86060193D9464FF0000CE4
:105AC000019B5EF8040B53F804AF01931FFA8AF3AD
:105AD000194683B2CB1A000C6344C0EB1A4000EBAA
