:020000040800F2
:10000000000002203D030008FD040008010500086F
:1000100005050008090500080D050008000000009E
:1000200000000000000000000000000011050008B2
:100030001505000800000000190500081D0500084E
:100040008D0300088D0300088D0300088D03000850
:100050008D0300088D0300088D0300088D03000840
:100060008D0300088D0300088D0300088D03000830
:100070008D0300088D0300088D0300088D03000820
:100080008D0300088D0300088D0300088D03000810
:100090008D0300088D0300088D0300088D03000800
:1000A0008D0300088D0300088D0300088D030008F0
:1000B0008D0300088D0300088D0300088D030008E0
:1000C0008D0300088D0300088D0300088D030008D0
:1000D0008D0300088D0300088D0300088D030008C0
:1000E0008D0300088D0300088D0300088D030008B0
:1000F0008D0300088D0300088D0300088D030008A0
:100100008D0300088D0300088D0300088D0300088F
:100110008D0300088D0300088D0300088D0300087F
:100120008D0300088D0300088D0300088D0300086F
:100130008D03000800000000000000008D0300088F
:100140008D0300088D0300088D0300088D0300084F
:100150008D0300088D0300088D0300088D0300083F
:100160008D0300088D0300088D0300088D0300082F
:100170008D0300088D0300088D03000800000000B7
:10018000000000008D0300080000000000000000D7
:100190008D03000800000000000000008D0300082F
:1001A0000000000000000000000000008D030008B7
:1001B0008D0300088D0300088D0300088D030008DF
:0401C0008D030008A3
:1001D00053B94AB9002908BF00281CBF4FF0FF31AE
:1001E0004FF0FF3000F00CB8ADF1080C6DE904CE13
:1001F00001F020F8DDF804E0DDE9022304B07047E7
:10020000704700BF00000000000000000000000078
:1002100001F0FF01102A2BDB10F0070F08D010F8B7
:10022000013B013A8B422DD010F0070F42B3F6D1BB
:10023000F0B441EA012141EA014122F007047FF0D4
:1002400000070023F0E80256083C85EA010586EA2B
:10025000010685FA47F5A3FA87F586FA47F6A5FA67
:1002600087F68EB9EED1F0BC01F0FF0102F0070273
:1002700032B110F8013B013A83EA010313B1F8D11E
:100280000020704701387047002D06BF35460338FF
:10029000073815F0010F07D1013015F4807F02BF38
:1002A000013015F4C03F0130F0BC0138704700BF89
:1002B0000348044B834202D0034B03B118477047F5
:1002C0006800002068000020000000000548064B80
:1002D0001B1AD90F01EBA301491002D0034B03B144
:1002E00018477047680000206800002000000000E8
:1002F00010B5064C237843B9FFF7DAFF044B13B16E
:100300000448AFF300800123237010BD6800002073
:10031000000000004823000808B5054B1BB1054943
:100320000548AFF30080BDE80840FFF7CFBF00BF2E
:10033000000000006C00002048230008DFF834D0E3
:100340000D480E490E4A002302E0D458C45004332D
:10035000C4188C42F9D30B4A0B4C002301E0136004
:100360000432A242FBD300F0DBF801F0C7F800F042
:100370000FF87047000002200000002068000020F5
:100380000C2400086800002024020020FEE7000082
:1003900000B597B000F05EF900232C490193086C7A
:1003A0002B4A40F080500864096C01F080510191A3
:1003B00001990293116841F44041116012681021C3
:1003C000012002F44042022402920B900C91022080
:1003D00010910721CDE90E43CDE91201029A08944C
:1003E0004FF4B472062308A81192149300F066FA31
:1003F00000B1FEE700F0E2FE034600B1FEE70F2188
:10040000CDE903144FF480524FF4A055052103A801
:10041000CDE90535079200F03DF9034680B90D4856
:100420000D4C4FF416510C22C0E90041C0E90233D3
:10043000C0E90432C0E9063300F020FE08B1FEE74F
:10044000FEE7064801F07EF8FEE700BF00380240F4
:100450000070004088000020004400406023000835
:1004600000B583B04FF6FF730190012201A9034844
:1004700000F036FE019803B05DF804FB8800002010
:1004800030B58BB01B4B1C4C00220192196B41F014
:1004900001011963196B01F00101019101990292A7
:1004A000196B41F001011963196B01F0010102910F
:1004B000029903921A6C42F400321A641B6C0420F5
:1004C000022103F40033CDE904010393012207253F
:1004D00004A920460223CDE906230895039B00F0DA
:1004E00059FC082304A920460493089500F052FC07
:1004F0000BB030BD0038024000000240704700BF22
:10050000FEE700BFFEE700BFFEE700BFFEE700BF5B
:10051000704700BF704700BF704700BF704700BF03
:100520001049114BD1F8882042F4700210B4C1F880
:1005300088201A680D4C002042F001021A60986071
:100540001A6822F0847222F480321A605C601A68A1
:100550004FF0006422F480221A60D8608C605DF84D
:10056000044B704700ED00E00038024010300024DA
:1005700070B5161E07DD0C468D19AFF3008004F828
:10058000010BA542F9D1304670BD00BF70B5161EF3
:1005900007DD0C468D1914F8010BFFF761FFA5422A
:1005A000F9D1304670BD00BF4FF0FF30704700BF3B
:1005B0004FF400534B600020704700BF012070478C
:1005C000002070470C490D4A0B6810B50C4C121BEB
:1005D0002BB11844904207D80860184610BD094B4B
:1005E0000B6018449042F7D900F082FF0C2303609F
:1005F0004FF0FF33184610BDD0000020000002204D
:100600000004000028020020704700BF38B50E4AE1
:100610000E4B1278054618684FF47A73B3FBF2F369
:10062000B0FBF3F000F09CFB08B90F2D01D90120BD
:1006300038BD0446024629464FF0FF3000F054FB17
:10064000034B20461D6038BD040000200000002040
:100650000800002008B50B4B1A6842F400721A60BB
:100660001A6842F480621A601A6842F480721A6052
:10067000032000F027FB0F20FFF7C8FFFFF7C4FFA0
:10068000002008BD003C0240014B1868704700BFC5
:10069000D4000020002800F08780484A136803F047
:1006A0000F038B422DE9F0410D46044609D2CBB22F
:1006B0001370136803F00F038B4202D00120BDE8D2
:1006C000F0812368980714D5590704D53C498A68F6
:1006D00042F4E0528A601A0704D539498A6842F424
:1006E00060428A603649A0688A6822F0F0020243BC
:1006F0008A60DF0721D56268012A57D0931E012B3B
:100700002F4B1B684DD99907D8D52D4EB36823F0D0
:1007100003031343B360FFF7B7FF41F2883807467E
:1007200004E0FFF7B1FFC01B404544D8B3686268DE
:1007300003F00C03B3EB820FF3D1204A136803F0EC
:100740000F03AB4206D9EBB21370136803F00F032B
:10075000AB42B3D123685A0706D51949E0688A68C5
:1007600022F4E05202438A601B0707D5144A21692C
:10077000936823F4604343EAC103936000F048F8B0
:100780000F4A104C92681049C2F303120346A25C50
:100790000E48D34000680B60FFF738FF0020BDE82B
:1007A000F0819801B1D489E701207047044B1B68A0
:1007B0009E03AAD482E7032081E700BF003C0240E9
:1007C00000380240B8230008000000200800002084
:1007D000044B05499B68054A0868C3F38223D35C30
:1007E000D84070470038024000000020B0230008C5
:1007F000044B05499B68054A0868C3F34233D35C40
:10080000D84070470038024000000020B0230008A4
:10081000274908B58B6803F00C03082B1DD00C2B5F
:1008200005D0244A2448042B18BF104608BD4A6846
:100830004B68496813F4800302F03F022ED11D4833
:10084000C1F38811A1FB0001FFF7C2FC184B5B68E4
:10085000C3F30273B0FBF3F008BD4A684B68496804
:1008600013F4800302F03F020FD11248C1F3881144
:10087000A1FB0001FFF7ACFC0D4B5B68C3F3014328
:1008800001335B00B0FBF3F008BD0B48C1F38811E6
:100890000023A1FB0001FFF79BFCEDE70648C1F335
:1008A00088110023A1FB0001FFF792FCCEE700BFF7
:1008B000003802400024F40000127A00002800F002
:1008C000FB812DE9F0410368DE0782B0044636D58E
:1008D000A1498A6802F00C02042A00F0DE808A68CE
:1008E00002F00C02082A00F0D4809B498A6802F0CA
:1008F0000C020C2A00F004816368B3F5803F00F01D
:100900001881B3F5A02F00F09281934D2A6822F44C
:1009100080322A602A6822F480222A60002B40F06C
:100920000D81FFF7B1FE064605E0FFF7ADFE801B27
:10093000642800F2FA802B689F03F6D423689D0791
:100940002FD5854A916811F00C0F00F099809168BD
:1009500001F00C01082900F08F807F498A6802F0BD
:100960000C020C2A00F05E81E368002B00F012817B
:100970007A4B794E01221A60FFF786FE054605E0A4
:10098000FFF782FE401B022800F2CF8033689F07EA
:10099000F6D53368226923F0F80343EAC2033360D3
:1009A00023681A0752D45D0730D56B4A136C13F0D5
:1009B000805300F099800025694E3368D80540F1D6
:1009C000A480A368012B00F0CD80052B00F03981B5
:1009D000614E326F22F001023267326F22F0040260
:1009E0003267002B40F0C380FFF74EFE41F288389B
:1009F000074605E0FFF748FEC01B404500F2958022
:100A0000336F9B07F6D4002D40F00681A369CBB16C
:100A1000514DAA6802F00C02082A00F0CC80022B8B
:100A20004E4B4FF000021A6600F01581FFF72CFEC6
:100A3000044604E0FFF728FE001B022875D82B6847
:100A40009B01F7D4002002B0BDE8F0816369002B60
:100A50002DD0424B404E0122C3F8802EFFF714FEEA
:100A6000054604E0FFF710FE401B02285DD8736FB7
:100A70009B07F7D5236896E7526850023FF56DAFA4
:100A8000354A1268920723D5E268012A20D0012056
:100A9000D9E74A6855027FF528AF2F4A12689203BA
:100AA0007FF54DAF6268002A7FF449AFEFE72B4A2C
:100AB000294EC2F8803EFFF7E7FD054604E0FFF748
:100AC000E3FD401B022830D8736F9F07F7D4D1E7AE
:100AD000214920690A6822F0F80242EAC0020A604D
:100AE0001A077FF560AFB1E70193136C43F08053B1
:100AF0001364136C03F080530193019B01255BE7A2
:100B00004A6851027FF5F8AEC7E7336843F4807353
:100B10003360FFF7B9FD07463368D9053FF551AF9C
:100B2000FFF7B2FDC01B0228F6D9032002B0BDE8D2
:100B3000F081094A136843F480331360FFF7A4FD82
:100B4000054E054604E0FFF79FFD401B6428ECD8E6
:100B500033689B03F7D5F1E60038024000004742B6
:100B600000700040554A136F43F001031367FFF70D
:100B70008BFD524F064641F2883804E0FFF784FDB2
:100B8000801B4045D1D83B6F9A07F7D5002D3FF425
:100B90003DAF41E04A4A494E1360FFF775FD0546F7
:100BA00004E0FFF771FD401B0228BED833689907A7
:100BB000F7D42368F5E6012B3FF469AF6B68E2696F
:100BC00003F4800191427FF462AF226A03F03F0197
:100BD00091427FF45CAF616A47F6C0721A40B2EB93
:100BE000811F7FF454AFA26A520803F44031013AE6
:100BF000B1EB024F7FF44BAFE16A03F07062B2EBEE
:100C0000016F7FF444AF226B03F0E043B3EB027F4C
:100C100014BF0120002016E7284A136C23F08053EC
:100C20001364F3E64A6851023FF59EAE28E7234B72
:100C30001A6842F480221A601A6842F480321A60FC
:100C40007CE71E4B1A6F42F004021A671A6F42F0DB
:100C500001021A678BE7FFF717FD064605E0FFF76D
:100C600013FD801B02283FF660AF2B689901F6D474
:100C7000D4E90731626A0B4343EA8213D4E90A20BC
:100C8000216B43EA0063520843EA0173013A0C49BD
:100C900043EA024301226B600A66FFF7F5FC074D49
:100CA000044605E0FFF7F0FC001B02283FF63DAFCD
:100CB0002B689A01F6D5C5E601207047003802403E
:100CC000000047420749CA6803024FF6FF0003F4D9
:100CD000E0630240134343F0BF6343F40033CB604F
:100CE000704700BF00ED00E01B4BDB68C3F302233D
:100CF00000B5C3F1070EBEF1040F03F1040C28BFC9
:100D00004FF0040EBCF1060F1CD9A3F1030C4FF0F9
:100D1000FF3303FA0CF322EA03024FF0FF3303FA26
:100D20000EF321EA030303FA0CF313431B0100281B
:100D3000DBB20ADB00F1604000F5614080F800336F
:100D40005DF804FB00229446E7E7044A00F00F0038
:100D5000024413765DF804FB00ED00E0FCEC00E0DB
:100D60000138B0F1807F01D30120704710B44FF0FB
:100D7000E023074C58614FF0F00C84F823C00022A8
:100D8000072110469A615DF8044B1961704700BF56
:100D900000ED00E02DE9F04F00230C68DFF8FCA126
:100DA00085B04FF0010B894603E00133102B00F0B2
:100DB0008C800BFA03F202EA0408A243F5D1D9F8B9
:100DC000041001F0030C5A0003250CF1FF36954086
:100DD000012E6FEA05057BD9BCF1030F40F0CE80F0
:100DE00006680CFA02F235402A4311F4403F0260D3
:100DF000DBD000220392DAF8442042F48042CAF8A1
:100E00004420DAF8442002F480420392039A23F04B
:100E1000030202F1804203F003060F2702F59C3221
:100E2000B60007FA06FC5A4F9568B84225EA0C0549
:100E300022D007F58067B84200F08280554FB84253
:100E400000F08480DFF858C1604500F08580DFF84D
:100E500054C1604500F08680DFF84CC1604500F069
:100E60008780DFF848C160450CBF4FF0060C4FF09B
:100E7000070C0CFA06F635439560474A9268CE0295
:100E80006FEA0805444E54BF2A4048EA0202B260A5
:100E9000F268414E8F0254BF2A4048EA0202F260D3
:100EA00072688E033C4E54BF2A4048EA02027260C8
:100EB0003268C90303F10103374954BF2A4048EAA5
:100EC0000202102B0A607FF474AF05B0BDE8F08F0A
:100ED000866806EA050ED9F80C60964046EA0E06CA
:100EE0008660466826EA080EC1F300169E4046EA70
:100EF0000E064660C66806EA050ED9F808609640F8
:100F000046EA0E06BCF1020FC6607FF469AFDE0848
:100F100000EB86060196376AD9F81060009703F057
:100F2000070E4FEA8E0E0F2706FA0EF607FA0EFE90
:100F3000009F27EA0E0E019F46EA0E063E624FE72B
:100F40004FF0010C0CFA06F6354395E74FF0020C12
:100F50000CFA06F635438FE74FF0030C0CFA06F651
:100F6000354389E74FF0040C0CFA06F6354383E766
:100F70004FF0050C0CFA06F635437DE7C66806EA25
:100F8000050ED9F80860964046EA0E06C66027E7C7
:100F90000000024000080240003C014000380240CE
:100FA000000C0240001002400014024000180240F1
:100FB0000268116938B50446C068A36821F440513D
:100FC00001432069116103436069D1680343E0690B
:100FD00021F4164121F00C0103430B43D360536904
:100FE000A069234923F4407303438A42536105D027
:100FF000204B9A4202D0FFF7EBFB01E0FFF7F8FB32
:10100000E2691921B2F5004FD4E90053A0FB0101B8
:1010100013D09A009B0FFFF7DBF8174AA2FB0013CF
:101020005B09642101FB130000013230A2FB0020A8
:101030001B0103EB5013AB6038BDDA184FF000030F
:101040005B41FFF7C5F80C4AA2FB00314909642354
:1010500003FB1103DB003233A2FB0323C3F3421271
:101060001B0902EB011203F4F8731344AB6038BDA3
:1010700000100140001401401F85EB5170B310B502
:1010800090F84130044603F0FF0213B32268242392
:1010900084F84130D36823F400532046D360FFF72F
:1010A00087FF2368196921F490411961596921F07A
:1010B0002A015961D96800224FF0200C41F40051F7
:1010C000D960626484F841C084F842C0104662630B
:1010D00010BD80F84020FFF7D3F9D7E70120704713
:1010E0002DE9F843044690F8410020284ED1884667
:1010F00009B1164612B90120BDE8F8831F464FF02A
:1011000000092123C4F8449084F84130FFF7BCFA69
:10111000A368A684B3F5805F0546E68439D0E28CE7
:10112000236892B2AAB11A68160604D4791C1ED19B
:101130001A681206FCD5B8F1000F21D018F8012B5F
:101140005A60E28C013A92B2E284E28C92B2002AB6
:10115000E9D11A68520604D4781C20D11A685106C5
:10116000FCD5202384F841300020BDE8F883FFF748
:101170008BFA401B87421BD3D7B12368DA68D2E7CA
:1011800039F8022BC2F308025A60DAE70220BDE800
:10119000F8832369002BC2D1C1469846BFE7FFF709
:1011A00073FA431B9F4203D317B12368DA68D0E771
:1011B000202384F841300320BDE8F88330B583B0A4
:1011C000194B1A491A4D002201921A6C42F08052B2
:1011D0001A641B6C03F0805301930122019B0A6483
:1011E000FFF752FA044605E0FFF74EFA001BB0F590
:1011F0007A7F16D86B68DA03F6D50C4B0C4D0122BA
:101200005A64FFF741FA044605E0FFF73DFA001B78
:10121000B0F57A7F05D86B689B03F6D5002003B044
:1012200030BD032003B030BD0038024000000E4244
:10123000007000402DE9F047089D0E4604460F4619
:10124000002B4AD194468C45B2FA82F260D942B161
:10125000C2F12003974020FA03F30CFA02FC1F436B
:1012600094404FEA1C4E1FFA8CF6B7FBFEF1230C9C
:101270000EFB117743EA074301FB06F098420AD9B7
:101280001CEB030301F1FF3780F01581984240F217
:101290001281023963441B1AA4B2B3FBFEF00EFBA9
:1012A000103344EA034400FB06F6A6420AD91CEBBD
:1012B000040400F1FF3380F00081A64240F2FD807B
:1012C0006444023840EA0140A41B00211DB1D4400F
:1012D0000023C5E90043BDE8F0878B4205D90DB175
:1012E000C5E9000100210846F5E7B3FA83F10029BA
:1012F00046D1B34202D3824200F2F580841A66EBF3
:10130000030201201746002DE5D0C5E90047E2E7BA
:10131000002A40F09380A1EB0C034FEA1C471FFA10
:101320008CFE0121B3FBF7F607FB1630230C43EAD2
:1013300000430EFB06F0984208D91CEB030306F1AC
:10134000FF3802D2984200F2D08046461B1AA4B25F
:10135000B3FBF7F007FB103344EA03440EFB00FE37
:10136000A64508D91CEB040400F1FF3302D2A645C0
:1013700000F2B6801846A4EB0E0440EA0640A5E74A
:10138000C1F120078B4022FA07FC4CEA030C06FA55
:1013900001FE20FA07F426FA07F344EA0E0400FAE5
:1013A00001F84FEA1C404FEA1449B3FBF0FE1FFA64
:1013B0008CF600FB1E3349EA03430EFB06F9994500
:1013C00002FA01F20BD91CEB03030EF1FF3A80F095
:1013D0008580994540F28280AEF1020E6344A3EB12
:1013E0000909A4B2B9FBF0F300FB139944EA0944DC
:1013F00003FB06F6A64208D91CEB040403F1FF30F8
:1014000068D2A64266D9023B644443EA0E40A41B5C
:10141000A0FB02E6B4427346B14652D34FD05DB151
:10142000B8EB030264EB090404FA07F722FA01F3AC
:101430001F43CC40C5E9007400214CE7C2F12001F4
:1014400020FA01F30CFA02FC26FA01F1964033432C
:101450004FEA1C471FFA8CFEB1FBF7F007FB101692
:10146000190C41EA064100FB0EF68E4204FA02F422
:1014700008D91CEB010100F1FF382DD28E422BD987
:1014800002386144891B9BB2B1FBF7F607FB1611CA
:1014900043EA014306FB0EF1994208D91CEB030312
:1014A00006F1FF3814D2994212D9023E63445B1A06
:1014B00046EA004136E73946EDE6184602E7F045D0
:1014C000ADD2BEEB020366EB0C060138B146A6E7CF
:1014D0004646ECE7034698E74046D3E7D6467EE724
:1014E0006444023847E708460DE7023E63442DE7AF
:1014F000014B1868704700BF0C00002070B50D4DFF
:101500000D4C641BA4100026A64209D10B4D0C4CB7
:1015100000F01AFF641BA4100026A64205D170BD7E
:1015200055F8043B98470136EEE755F8043B9847D9
:101530000136F2E70424000804240008042400080B
:10154000082400080FB407B5064904AB086853F82F
:10155000042B8168019300F031F803B05DF804EBCF
:1015600004B070470C0000209368013B002B10B4BE
:10157000936008DA9469A34201DB0A2903D15DF87C
:10158000044B00F049BC1368581C106019700846E1
:101590005DF8044B7047F8B506460F461446D5185B
:1015A000AC4201D1002007E014F8011B3A46304656
:1015B000FFF7DAFF431CF3D1F8BD00002DE9F04F2F
:1015C0000D469DB014469846064618B1036A0BB9FD
:1015D00000F084FB6B6ED90705D4AB899A0502D461
:1015E000A86D00F062F9AB891B0701D52B699BB987
:1015F0002946304600F002F970B16B6EDC0704D565
:101600004FF0FF301DB0BDE8F08FAB899805F7D4DF
:10161000A86D00F04BF9F3E70023099320238DF820
:101620002930CDF80C803023DFF8AC818DF82A30DA
:101630004FF0010923469A4613F8012B0AB1252AD7
:10164000F9D1BAEB040B0BD05B4622462946304653
:10165000FFF7A1FF013000F0A780099A5A440992D0
:101660009AF80030002B00F09F8000234FF0FF32EB
:10167000CDE905230AF1010A049307938DF853304D
:101680001A935446052214F8011B5348FEF7C0FD77
:10169000049AD8B9D10644BF20238DF853301307DC
:1016A00044BF2B238DF853309AF800302A2B15D0E5
:1016B000079A544600204FF00A0C214611F8013BCE
:1016C000303B092B4BD9B0B1079214E0A0EB0803D3
:1016D00009FA03F313430493A246D2E7039B191DAF
:1016E0001B680391002BBBBF5B4242F002020793D1
:1016F0000793B8BF049223782E2B0AD163782A2B44
:1017000032D1039B1A1D1B68039243EAE373023430
:101710000593DFF8D4A0217803225046FEF778FD28
:1017200038B1049BA0EB0A004022824013430134ED
:10173000049314F8011B29488DF828100622FEF79F
:1017400067FD00283FD0264B1BBB039B073323F0CC
:10175000070308330393099B3B4409936AE70CFB97
:1017600002320C460120A8E70023013405931946F4
:101770004FF00A0C204610F8012B303A092A03D901
:10178000002BC6D00591C4E70CFB012104460123C0
:10179000F0E703AB00932A46124B04A93046AFF39F
:1017A00000800746781CD6D16B6ED90705D4AB896B
:1017B0009A0502D4A86D00F079F8AB895B063FF575
:1017C0001FAF09981EE703AB00932A46054B04A9F7
:1017D000304600F0D9F8E4E7C8230008D223000817
:1017E0000000000097150008CE23000802440346BD
:1017F000934200D1704703F8011BF9E738B5294B34
:10180000054618680C4618B1036A0BB900F066FA71
:10181000B4F90C30190722D4DA0607D409222A6059
:1018200043F04003A3814FF0FF3033E0580712D557
:10183000616B41B104F14403994202D0284600F0A3
:1018400029FB00236363A38923F02403A3810023DE
:10185000636023692360A38943F00803A38123699C
:101860004BB9A38903F42073B3F5007F03D021465D
:10187000284600F091FBB4F90C3013F001020AD0B5
:101880000022A26062695242A261226942B913F049
:101890008000C5D138BD990758BF6269A260F4E7DE
:1018A0000020F7E70C0000207047704770472DE9D3
:1018B000F047164698468A680B69DDF820909342F7
:1018C000B8BF1346336091F8432007460C460AB16F
:1018D000013333602368990642BF336802333360B3
:1018E000256815F0060506D104F1190AE368326887
:1018F0009B1AAB4226DC94F843302268003B18BFA9
:10190000012392062BD404F1430241463846C847CE
:1019100001301ED02368226903F00603042B02BFA6
:10192000E5683368ED1AA3680CBF25EAE575002564
:101930009342C4BF9B1AED1800261A34B5421AD13F
:10194000002008E00123524641463846C84701308E
:1019500003D14FF0FF30BDE8F0870135C6E7E1184D
:101960005A1C302081F84300224494F8451082F834
:1019700043100233C7E70123224641463846C84791
:101980000130E6D00136D9E72DE9FF470F7E0C9EE6
:10199000782F914680460C469A4601F1430207D8BB
:1019A000622F0AD8002F00F0D180582F00F0B880A5
:1019B00004F1420684F842703AE0A7F16303152B64
:1019C000F6D801A151F823F0211A0008351A0008B1
:1019D000B1190008B1190008B1190008B1190008BF
:1019E000351A0008B1190008B1190008B11900082A
:1019F000B1190008331B00085F1A0008ED1A00082F
:101A0000B1190008B1190008551B0008B1190008E8
:101A10005F1A0008B1190008B1190008F51A00088A
:101A200033681A1D1B68326004F1420684F84230A4
:101A300001239CE033682068191D3160060601D53A
:101A40001D6803E04506FBD5B3F90050002D03DA0D
:101A50002D236D4284F8433058480A2311E0216851
:101A60003368080653F8045B02D4490648BFADB298
:101A70006F2F5248336014BF0A230823002184F8D3
:101A800043106668A660002E05DB21682E4321F016
:101A9000040121604BD01646B5FBF3F103FB11574F
:101AA000C75D06F8017D2F46BB420D46F4D9082BD1
:101AB0000BD12368DF0708D5236961689942DEBF2F
:101AC000302306F8013C06F1FF36921B2261CDF867
:101AD00000A04B4603AA21464046FFF7E8FE01302E
:101AE0004AD14FF0FF3004B0BDE8F087236843F0DF
:101AF000200323603248782784F8457023683168D2
:101B00001F0651F8045B02D45F0648BFADB23160D6
:101B1000D90744BF43F0200323601DB11023ADE774
:101B20002648E9E7236823F020032360F6E71646FA
:101B3000BDE7336825686169181D30602E061B6893
:101B400001D5196002E06806FBD5198000232361E6
:101B50001646BCE733681A1D32601E6862680021B1
:101B60003046FEF755FB08B1801B60606368236157
:101B7000002384F84330AAE72369324649464046A9
:101B8000D0470130ADD023689B0713D4E068039B96
:101B90009842B8BF1846A6E7012332464946404658
:101BA000D04701309DD00135E36803995B1AAB4201
:101BB000F2DCEBE7002504F11906F5E7D92300086C
:101BC000EA230008002310B50446C0E90033C0E949
:101BD0000433836081814366C28183611946082290
:101BE0005C30FFF703FE0D4B63620D4BA3620D4BA0
:101BF000E3620D4B23630D4B24629C4206D003F13C
:101C00006802944202D0D0339C4205D104F15800BE
:101C1000BDE81040FFF748BE10BD00BF0D1D000815
:101C20002F1D0008671D00088B1D0008DC00002028
:101C3000024A0349034800F0D1B800BF5C0000200D
:101C4000192100081000002041680C4B994210B582
:101C5000044601D000F060FAA168094B994202D015
:101C6000204600F059FAE168064B994204D020461C
:101C7000BDE8104000F050BA10BD00BFDC000020ED
:101C800044010020AC01002010B50B4B0B4C0C4A5A
:101C90001A60204600220421FFF794FF04F1680037
:101CA00001220921FFF78EFF04F1D0000222BDE8D6
:101CB00010401221FFF786BF14020020DC00002034
:101CC000311C00080148FFF7F0BD00BFD90000201B
:101CD0000148FFF7EBBD00BFD900002010B5044656
:101CE000FFF7F0FF236A1BB1BDE81040FFF7F0BF1C
:101CF000044B2362044B1B68002BF5D1FFF7C4FF94
:101D0000F2E700BF491C00081402002010B50C4681
:101D1000B1F90E1000F050F80028ABBF636DA38935
:101D20001B1823F48053ACBF6365A38110BD2DE95C
:101D3000F0411F468B89DB0505460C46164605D546
:101D4000B1F90E100223002200F024F8A389B4F99F
:101D50000E1023F48053A38132463B462846BDE84B
:101D6000F04100F0E1B810B50C46B1F90E1000F0EA
:101D700011F8431CA38915BF606523F4805343F415
:101D80008053A38118BFA38110BDB1F90E1000F0DC
:101D90008DBA000038B5074D0446084611460022AA
:101DA0002A601A46FEF70CFC431C02D12B6803B1D3
:101DB000236038BD2002002038B5074D0446084690
:101DC000114600222A601A46FEF7D2FB431C02D1BC
:101DD0002B6803B1236038BD200200202DE9F843B1
:101DE0000746884614460026D4E90195B9F1010951
:101DF00005D52468002CF7D13046BDE8F883AB89BF
:101E0000012B07D9B5F90E30013303D029463846E6
:101E1000C04706436835E9E7F8B50E46144605465F
:101E200018B1036A0BB9FFF759FFA369A360A3892F
:101E30001A0701D5236943B921462846FFF7DEFC7E
:101E400018B14FF0FF373846F8BD23682269981A59
:101E50006369F6B28342374605DC2146284600F026
:101E60005BF90028EDD1A368013BA36023685A1CED
:101E700022601E706269431C9A4204D0A389DB076A
:101E8000E1D50A2EDFD12146284600F045F9002889
:101E9000D9D0D6E738B50546002941D051F8043CE1
:101EA0000C1F002BB8BFE41800F022FA1D4A13687B
:101EB00033B9636014602846BDE8384000F01EBAAC
:101EC000A34208D9206821188B4201BF19685B68BA
:101ED00009182160EDE71A465B680BB1A342FAD9F5
:101EE00011685018A0420BD1206801445018834259
:101EF0001160E0D118685B68536008441060DAE74D
:101F000002D90C232B60D6E7206821188B4204BF2E
:101F100019685B68636004BF091821605460CAE7F0
:101F200038BD00BF1C02002038B5074D04460846E6
:101F3000114600222A601A46FEF728FB431C02D1F4
:101F40002B6803B1236038BD2002002070B50C4619
:101F5000B1F90E10002996B015461E460DDAA38978
:101F600013F0800F4FF0000114BF40234FF4806343
:101F7000002031602B6016B070BD6A4600F0A6F9F3
:101F80000028ECDB019901F47041A1F5005359429E
:101F900059414FF48063EBE78B89F7B59D070646FF
:101FA0000C4607D504F147032360236101236361D5
:101FB00003B0F0BD01AB6A46FFF7C8FF009F0546BE
:101FC0003946304600F0F2F848B9B4F90C309A05B9
:101FD000EED423F0030343F00203A381E2E7A389D5
:101FE000206043F08003A381019BC4E904075BB137
:101FF000B4F90E10304600F087F928B1A38923F018
:10200000030343F00103A381A3891D43A581CFE707
:10201000B1F90C202DE9F041160705460C4654D4C1
:102020004B68002B02DC0B6C002B48DDE66A002EAF
:1020300045D0002312F480522F68216A2B6030D0E3
:10204000626DA389590705D56368D21A636B0BB11A
:10205000236CD21A0023E66A216A2846B047431C43
:10206000A38906D129681D292BD82A4ACA40D60738
:1020700027D500226260D9042269226004D5421C5F
:1020800001D12B6803B96065616B2F60B9B104F1B0
:102090004403994202D02846FFF7FCFE0023636305
:1020A0000DE001232846B0470246501CC9D12B68D9
:1020B000002BC6D01D2B01D0162B1ED12F60002067
:1020C00022E043F040031BB21BE00F69002FF6D063
:1020D00093070E6808BF4B690F6018BF0023A6EB7B
:1020E00007088B60B8F1000FE9DD216AA66A434654
:1020F0003A462846B047002808DCB4F90C3043F0D3
:102100004003A3814FF0FF30BDE8F0810744A8EB06
:102110000008E7E70100402038B50B6905460C468A
:1021200013B90025284638BD18B1036A0BB9FFF76B
:10213000D5FDB4F90C30002BF3D0626ED00704D477
:10214000990502D4A06DFFF7B0FB28462146FFF7A2
:102150005FFF636EDA070546E4D4A3899B05E1D4EB
:10216000A06DFFF7A3FBDDE770B50F4E0C4631689D
:10217000054611B900F0D8F830602146284600F035
:10218000D3F8431C03D14FF0FF34204670BDC41C6C
:1021900024F00304A042F8D0211A284600F0C4F825
:1021A0000130F2D1EFE700BF180200202DE9F8431B
:1021B000CD1C25F0030508350C2D38BF0C25002D4E
:1021C000064601DBA94204D90C2333600020BDE898
:1021D000F883DFF8D48000F08BF8D8F800301C4684
:1021E00044BB29463046FFF7BFFF431C044658D185
:1021F000D8F800402746002F43D1002C4BD023684D
:102200003946304604EB030900F08EF8814542D18F
:1022100021686D1A29463046FFF7A6FF01303AD0F3
:1022200023682B442360D8F800305A6862BBC8F892
:1022300000700FE02268521B20D40B2A17D96119B5
:10224000A342256018BF5960636808BFC8F8001032
:1022500062514B60304600F051F804F10B00231D31
:1022600020F00700C21A1CBF1B1AA350AFE7626818
:10227000A3420CBFC8F800205A60EBE7234664680D
:10228000AEE73C467F68B6E71A465B68A342FBD1DF
:1022900000235360DEE70C233360304600F02EF855
:1022A00094E70560D6E700BF1C02002038B5064D54
:1022B0000023044608462B60FEF776F9431C02D142
:1022C0002B6803B1236038BD2002002038B5074DCC
:1022D00000230446084611462B60FEF769F9431CAB
:1022E00002D12B6803B1236038BD00BF200200205B
:1022F0000148FFF7DABA00BFD80000200148FFF715
:10230000D5BA00BFD800002038B5064D00230446DA
:1023100008462B60FEF752F9431C02D12B6803B12B
:10232000236038BD2002002038B5064D0023044646
:1023300008462B60FEF746F9431C02D12B6803B117
:10234000236038BD20020020F8B500BFF8BC08BCEF
:102350009E467047F8B500BFF8BC08BC9E46704763
:102360000A0D2055415254205072696E7466204502
:1023700078616D706C653A2072657461726765741E
:10238000207468652043206C6962726172792070E4
:1023900072696E74662066756E6374696F6E207400
:1023A0006F2074686520554152540A0D00000000EA
:1023B0000000000001020304000000000000000013
:1023C0000102030406070809232D302B2000686C46
:1023D0004C00656667454647003031323334353648
:1023E0003738394142434445460030313233343581
:0C23F000363738396162636465660000AE
:0823FC0014DEFF7F0100000068
:0424040019030008B0
:04240800F1020008D5
:10240C000024F40001000000100000001000002067
:10241C0000000000DC00002044010020AC01002082
:10242C0000000000000000000000000000000000A0
:10243C000000000000000000000000000000000090
:10244C000000000000000000000000000000000080
:10245C000000000000000000000000000000000070
:08246C0003000000DC00002069
:040000050800033DAF
:00000001FF
